:020000040800F2
:10000000300400209D010008FB06000841040008A0
:10001000F706000887020008070E0008000000002D
:10002000000000000000000000000000F1080008CF
:100030008B0200080000000075070008210A000874
:10004000B7010008B7010008B7010008B7010008B0
:10005000B7010008B7010008B7010008B7010008A0
:10006000B70100088D020008B7010008B7010008B9
:10007000B7010008B7010008B7010008B701000880
:10008000B7010008B7010008B7010008B701000870
:10009000B7010008B7010008B7010008B701000860
:1000A000B7010008B7010008B7010008B701000850
:1000B000B7010008B7010008B7010008B701000840
:1000C000B7010008B7010008B7010008B701000830
:1000D000B7010008B7010008810C0008B70100084B
:1000E000B7010008B7010008B7010008B701000810
:1000F000B7010008B7010008B7010008B701000800
:10010000B7010008B7010008B7010008B7010008EF
:10011000B7010008B7010008B7010008B7010008DF
:10012000B7010008B7010008B7010008B7010008CF
:10013000B7010008B7010008B7010008B7010008BF
:10014000B7010008B7010008B7010008B7010008AF
:10015000B7010008B7010008B7010008B70100089F
:10016000B7010008B7010008B7010008B70100088F
:10017000B7010008B7010008B7010008B70100087F
:10018000B7010008B7010008DFF80CD000F04AF80A
:1001900000480047ED120008300400200648804760
:1001A00006480047FEE7FEE7FEE7FEE7FEE7FEE75C
:1001B000FEE7FEE7FEE7FEE7250A000889010008E2
:1001C0002DE9F05F0546002092469B46884606468C
:1001D000814640241BE0284641464746224600F01F
:1001E00042F853465A46C01A914110D31146184658
:1001F000224600F029F82D1A67EB01084F462246E7
:100200000120002100F020F817EB00094E41201ECC
:10021000A4F10104DFDC484631462A464346BDE8E6
:10022000F09F0000064C074D06E0E06840F0010337
:1002300094E8070098471034AC42F6D3FFF7A8FFC4
:100240006014000880140008202A04DB203A00FA19
:1002500002F1002070479140C2F1200320FA03F31D
:10026000194390407047202A04DB203A21FA02F01B
:100270000021704721FA02F3D040C2F120029140E0
:1002800008431946704700BFFEE7704710B50820C5
:1002900000F00CF810B1082000F002F810BD0000CA
:1002A0000149086070470000143C014001460020ED
:1002B000034A12680A400AB1012000E0002070479A
:1002C000143C0140002123498279002A3AD00A4691
:1002D000126803689A430B461A600A1D1268036885
:1002E0009A430B1D1A60027911440A6803681A4385
:1002F0000A60184A0832126803689A43154B08339B
:100300001A601A1D126803689A43124B0C331A6064
:100310004279102A0ED11A1F126803681A430D4B36
:1003200008331A601A1D126803681A43094B0C330C
:100330001A600DE00749427911440A6803681A43BC
:100340000A6005E0027911440A6803689A430A606A
:1003500070470000003C0140F0B50A460021002330
:10036000002400BF3DE0012505FA01F3156805EA08
:1003700003049C4234D105684F000326BE40B543B8
:10038000056015794E00B54006683543056015795E
:10039000012D02D01579022D16D185684F00032654
:1003A000BE40B543856055794E00B54086683543FB
:1003B0008560456801268E40B5434560456896795D
:1003C0008E40B6B235434560C5684F000326BE4037
:1003D000B543C560D5794E00B540C6683543C560A4
:1003E000491C1029BFD3F0BDF0B5002300244D07F0
:1003F000ED0E02FA05F3CE1000F1200555F8265057
:100400004E07F70E0F26BE40B543CF1000F1200671
:1004100046F82750CE1000F1200555F8265045EA41
:100420000304CE1000F1200545F82640F0BD024639
:10043000002013690B400BB1012000E00020704741
:1004400000BFFEE7F8B508213648FFF7F0FF0128A6
:1004500000D1F8BD43F69821002000F0E9FF0546E1
:1004600040F2DC5242F22831284600F033FF00B956
:10047000EFE741F27071012000F0DAFF054640F22B
:10048000DC5241F29411284600F024FF00B9E0E765
:100490000020009000242AE04FF47A71002000F040
:1004A000C7FF40F6C411012000F0C2FF054605B9A0
:1004B000CFE740F24C40854217D9E21704EB527265
:1004C000D2101DF802202146E31704EB5373DB1012
:1004D000A4EBC3060123B3401A43D2B22046E3176C
:1004E00004EB5373DB100DF80320601CC4B2202C06
:1004F000D2DB9DF800000C4908709DF8010048709F
:100500009DF8020088709DF80300C87001200871F2
:100510009DF802209DF8001004A000F077FC00BFB9
:1005200097E70000000002400000002049523A20F6
:10053000416464723D30782530325820436D643D0B
:100540003078253032580D0A0000000000B585B023
:100550000121084600F028F90121880300F044F940
:1005600000208DF8100001208DF813000820039062
:1005700002208DF8110003A91148FFF7EDFE0321B9
:10058000002000F0B7F90820019000208DF8080045
:100590000C208DF8090001208DF80A0001A8FFF752
:1005A00091FE09208DF8000001208DF801008DF8E2
:1005B00002008DF80300684600F0A0F805B000BD09
:1005C0000000024070B505460C4600F0E1F842F22A
:1005D000283000F001FF00F0CFF841F2941000F055
:1005E000FBFE284600F068F8E943C8B200F064F862
:1005F000204600F061F8E143C8B200F05DF800F079
:10060000C7F84FF40C7000F0E7FE00F0B5F870BDCD
:100610001CB50121022000F0C7F84FF48070009053
:1006200002208DF8040003208DF8050000208DF8CD
:1006300006008DF8070069460448FFF78DFE032287
:1006400008210248FFF7D0FE1CBD00000004024054
:1006500010B5FFF7DDFF00F001F810BD00B589B05F
:100660000121480400F0C0F841F245100790012034
:10067000ADF818000020ADF82000ADF81A0006A96A
:100680000C4800F065FA6020ADF804000120ADF8D8
:10069000060040F6A20003900020ADF8100001A96A
:1006A000044800F017FA01220021024800F0EEF998
:1006B00009B000BD0044014070B50446002500BFEC
:1006C00016E000F065F84FF40C7000F085FE00F0C5
:1006D00053F804F0010020B14FF4D26000F07CFE2A
:1006E00003E04FF40C7000F077FE6410681CC5B294
:1006F000082DE6DB70BD00BFFEE7704770B5002136
:1007000000230F22C4781CB3174C246804F4E0645F
:10071000C4F5E064C4F30721C1F10404E3B20A4163
:1007200044789C40E1B28478144021430C07210EA8
:100730000E4C05786155047804F01F050124AC4087
:1007400005786D11AD0005F1E025C5F8004109E01F
:10075000047804F01F050124AC40054D067876119D
:1007600045F8264070BD00000CED00E000E400E01C
:1007700080E100E07047000010B54021034800F020
:10078000A0F90021014800F090F910BD004401409B
:1007900010B56021034800F094F90121014800F0F0
:1007A00084F910BD0044014029B1064A1268024391
:1007B000044B1A6004E0034A12688243014B1A603A
:1007C000704700003038024029B1064A12680243DF
:1007D000044B1A6004E0034A12688243014B1A601A
:1007E000704700004038024029B1064A12680243AF
:1007F000044B1A6004E0034A12688243014B1A60FA
:100800007047000044380240F0B500210022002467
:10081000022500260223324F3F6807F00C0121B168
:10082000042905D0082937D105E02E4F076036E0AE
:100830002D4F076033E02A4F3F1F3F68C7F38056B4
:10084000274F3F1F3F6807F03F036EB1264FB7FBAE
:10085000F3F7DFF88CC0ACF1040CDCF800C0CCF38B
:10086000881C07FB0CF40CE01E4FB7FBF3F7DFF816
:1008700070C0ACF1040CDCF800C0CCF3881C07FBA2
:100880000CF4174F3F1F3F68C7F301477F1C7D00E3
:10089000B4FBF5F7076002E0124F076000BF00BF2E
:1008A0000F4F3F6807F0F0010909104F7A5C0768A5
:1008B000D74047600A4F3F6807F4E051890A0B4F61
:1008C0007A5C4768D7408760054F3F6807F460410E
:1008D000490B064F7A5C4768D740C760F0BD0000FF
:1008E000083802400024F40000127A0005000020BD
:1008F0007047000030B500228B071C0F0F2303FA4E
:1009000004F20B4B8C1053F824309343084C8D1099
:1009100044F8253023468C1053F824308C07240FDC
:1009200000FA04F42343024C8D1044F8253030BD06
:10093000083801400CB50020019000903448006850
:1009400040F480303249086000BF3148006800F44C
:10095000003000900198401C0190009818B901984F
:10096000B0F5A04FF1D12A48006800F4003010B172
:100970000120009001E0002000900098012846D15D
:1009800023484030006840F08050214940310860E1
:100990002048006840F440401E4908601C48083068
:1009A00000681B49083108600846006840F40040B0
:1009B00008600846006840F4A05008601648091F07
:1009C0000860081F006840F08070091F086000BFC1
:1009D0000F48006800F000700028F9D040F2057060
:1009E0000E4908600A480830006820F003000849F2
:1009F000083108600846006840F00200086000BF47
:100A000003480830006800F00C000828F8D10CBD3D
:100A1000003802400070004008544007003C02408B
:100A20007047000010B51548006840F47000134985
:100A300008601348006840F0010011490860002078
:100A40000F49083108600E4800680E4908400C49FB
:100A500008600D48091D0860081F006820F4802008
:100A6000091F0860002006490C310860FFF762FF8B
:100A70004FF0006001498039086010BD88ED00E04A
:100A800000380240FFFFF6FE1030002430B500238E
:100A900001248C40A3B2048C9C430484048C02FA8D
:100AA00001F5ADB22C43048430BD21B1028842F07F
:100AB0000102028004E002884FF6FE731A400280B1
:100AC00070470A460021018B4FF68F73194011437E
:100AD0000183704770B5002400220023058C4FF677
:100AE000FE7635400584028C8388048B4FF68F7523
:100AF0002C40B51E2C400D882C43751E2A408D8934
:100B00002A434D882A43104DA84202D00F4DA842D7
:100B100013D14FF6F7752A40CD892A434FF6FB755E
:100B20002A408D882A434FF6FF652B404FF6FF552C
:100B30002B400D8A2B434D8A2B43838004838D6881
:100B40004563028470BD00000000014000040140C4
:100B500000220288184B98420ED0184B98420BD0B6
:100B6000B0F1804F08D0164B984205D0154B9842F3
:100B700002D0154B984204D14FF68F731A404B8820
:100B80001A43124B984207D0114B984204D04FF6AB
:100B9000FF431A400B891A4302804B68C3620B88DB
:100BA0000385054B984202D0044B984201D18B7AC1
:100BB0000386012383827047000001400004014046
:100BC0000004004000080040000C004000100040FD
:100BD0000014004010B588B0044601210846FFF714
:100BE000E3FD01214804FFF7EFFD0722022122481F
:100BF000FFF7FAFB072203211F48FFF7F5FB0C2044
:100C0000069002208DF81C008DF81D0000208DF844
:100C10001E0001208DF81F0006A91748FFF79CFB56
:100C200002940020ADF80C00ADF80E00ADF81000F5
:100C3000ADF814000C20ADF8120002A90F4800F026
:100C40006FF826208DF8040003208DF805008DF83C
:100C5000060001208DF8070001A8FFF74FFD0122D3
:100C600040F22551054800F036F80121034800F014
:100C700019F808B010BD0000000002400044004018
:100C800010B500242021064800F018F838B10448B7
:100C900000F0B0F8C4B22146014800F0B0F810BD31
:100CA0000044004021B1828942F40052828104E074
:100CB00082894DF6FF731A408281704702460020F8
:100CC000B1F5007F00D100BF13880B400BB10120AC
:100CD00000E000207047F0B5034600240026002500
:100CE000002040F66A17B94200D100BF1846C1F390
:100CF000421401F01F06012707FA06F5012C01D165
:100D00000C3004E0022C01D1103000E014301AB194
:100D100007682F43076002E00768AF430760F0BD34
:100D20002DE9FF4705460E460024A14600BFA04618
:100D3000B08900B100BF2C8A24F44054F0880443E9
:100D40002C82AC8941F20C608443B088318908431D
:100D5000718908430443AC81AC8A24F44074B0899F
:100D60000443AC826846FFF74FFD2048854202D01D
:100D70001F48854202D1DDF80C9001E0DDF80890B3
:100D8000A88900F4004040B109EBC90000EB09104C
:100D900031684900B0FBF1F707E009EBC90000EB4F
:100DA000091031688900B0FBF1F76420B7FBF0F05F
:100DB00004012009642101FB1078A88900F4004097
:100DC00040B1322000EBC800B0FBF1F000F00700AA
:100DD000044308E0322000EB08106421B0FBF1F07E
:100DE00000F00F0004432C81BDE8FF870010014094
:100DF0000014014001468888C0F308007047C1F321
:100E000008028280704700BFFEE700000FB4054B68
:100E100010B503A9044A029800F018F810BC5DF858
:100E200014FB0000B11200082C00002002E008C8EA
:100E3000121F08C1002AFAD170477047002001E054
:100E400001C1121F002AFBD1704700002DE9FF4F9E
:100E50008DB00F460546002606E025280BD0DDE9BB
:100E60000F1290476D1C761C28780028F5D111B020
:100E70003046BDE8F08F0024A246A1460122EC498D
:100E800000E0044315F8013F203B02FA03F008425A
:100E9000F7D128782A2810D06FF02F022878A0F1F7
:100EA0003001092914D80AEB8A0102EB410144F010
:100EB000020400EB010A6D1CF0E701CF5FEA000AB3
:100EC00003D544F40054CAF1000A44F002046D1C36
:100ED00028782E2817D115F8010F44F004042A2889
:100EE0000ED06FF02F022878A0F1300109290AD81E
:100EF00009EB890102EB410100EB01096D1CF2E7EE
:100F000057F8049B6D1C28786C280FD006DC4C2801
:100F100017D068280DD06A2814D104E0742810D0A6
:100F20007A280FD10DE044F400140AE044F4801450
:100F300001E044F440146978814202D104F5801440
:100F40006D1C6D1C2A786E2A1FD00CDC632A31D0F0
:100F500004DC002A8BD0582A11D1A3E0642A68D07F
:100F6000692A0CD165E0732A2ED004DC6F2A73D075
:100F7000702A04D19BE0752A6FD0782A6ED0104673
:100F8000DDE90F129047761C50E1C4F302500228AD
:100F900006D0032809D0042801CF09D0066045E116
:100FA00001CFF117C0E9006140E101CF06803DE1CA
:100FB00006703BE117F8040B8DF8000000208DF857
:100FC0000100EB46012003E057F804BB4FF0FF306F
:100FD00061074FF0000102D40DE008F101018846DD
:100FE00049450FDA8045F8DB1BF808100029F4D1D9
:100FF00008E008F1010188468142FADB1BF808107D
:101000000029F6D1DDE90F23AAEB0800814621462D
:1010100000F036F9304400EB080604E0DDE90F1279
:101020001BF8010B9047B8F10108F7D2214648465A
:10103000F7E00A21C4F302534FF0000B0891022B92
:1010400004D001CFC117032B09D00AE0FF1D27F000
:101050000707F7E8020108E032E01FE020E000B2F5
:10106000C117042B01D140B2C117031E71F1000357
:1010700007DA4FF0000CD0EB0C006CEB01012D23D4
:1010800002E0230504D52B238DF82430012303E04F
:10109000E30701D02023F7E7984658E00A2110E043
:1010A00010210EE010204FF0000B08900CE01021F2
:1010B0004FF0000B44F004044FF00809089103E0DE
:1010C00008214FF0000B0891C4F30253022B04D007
:1010D00001CF0021032B06D006E0FF1D27F00707F4
:1010E000F7E8020103E080B2042B00D1C0B24FF058
:1010F000000823072BD5702A07D0DDF820C08CF01C
:10110000100C5CEA0B0C05D00EE040238DF8243067
:10111000012308E050EA010306D030238DF8243083
:101120008DF8252002239846DDF820C08CF0080CAD
:101130005CEA0B0C0BD150EA010301D1630706D521
:1011400030238DF824304FF00108A9F10109582A05
:1011500004D038A20B9208AA0A920BE03AA2F9E74F
:101160005B46089AFFF72CF80B9B9B5C0A9A521E71
:101170000A92137050EA0102F2D10A98ADEB000016
:1011800000F1200B600702D524F4803401E04FF019
:101190000109D94502DDA9EB0B0000E0002000EBBE
:1011A0000B0141440890AAEB010AE00306D4DDE9F3
:1011B0000F232146504600F063F806444FF0000923
:1011C00008E009A911F80900DDE90F12904709F1BB
:1011D0000109761CC145F4DBE0030CD5DDE90F23E2
:1011E0002146504600F04CF8064404E0DDE90F12B9
:1011F00030209047761C0899481E08900029F5DC9D
:1012000008E00A980A990078491C0A91DDE90F1252
:101210009047761CBBF10001ABF1010BF1DC2146DC
:101220005046DDE90F2300F019F806446D1C1BE65B
:1012300009280100303132333435363738396162AC
:101240006364656600000000303132333435363770
:101250003839414243444546000000002DE9F04141
:10126000044600251E461746880404D405E0394686
:101270002020B0476D1C641EF9D52846BDE8F081DA
:101280002DE9F041044600251E469046C80301D5CD
:10129000302700E02027880404D505E04146384681
:1012A000B0476D1C641EF9D52846BDE8F0810000EA
:1012B00070B504460D46E1B20548FFF7A0FD00BF3A
:1012C00080210348FFF7FAFC0028F9D0204670BDC2
:1012D000004400400346881A984204D28818984275
:1012E00001D9012070470020FCE700000024002500
:1012F000254800684FF47A72B0FBF2F1481EB0F155
:10130000807F00D31BE0481E4FF0E0225061501751
:101310000F22002807DA13071F0E1C4B00F00F06E0
:10132000361F9F5503E013071E0E194B1E5400BFB6
:1013300000204FF0E02290610720106100BF4FF4C1
:10134000E130FFF747FCFFF701F912A0FFF75EFD60
:10135000FFF77EF914A0FFF759FD14E0FFF772F8CC
:1013600042F21070854207D314A0FFF74FFD7B2196
:101370000120FFF727F90025B4F57A6F02D36D1C21
:10138000002400E0641CE9E71800002018ED00E0EC
:1013900000E400E04952205265637620496E69748A
:1013A000204F4B0D0A00000049522053656E642007
:1013B000496E6974204F4B0D0A0000004952536575
:1013C0006E643A616464723A312C636F64653A31D9
:1013D00032330D0A00000000F0B50346002400225D
:1013E0004FF0E0267569104E3668104FB6FBF7F6E1
:1013F00006FB03F44FF0E026B16912E04FF0E0265F
:10140000B069884200D10CE0884202D20E1A324400
:1014100002E02E1A0E4432440146A24200D301E0FB
:1014200000BFEBE700BFF0BD1800002040420F00F6
:1014300070B505460E46002407E0641CB44201D393
:10144000002070BD0120FFF7C7FF08210348FEF709
:10145000EEFFA842F1D02046F3E700000000024072
:101460008014000800000020300000002C0E00084E
:10147000B014000830000020000400003C0E0008FA
:10148000000000000000000000010203040102034C
:101490000406070809000000007A030A00000000A3
:1014A0000000000001020304060708090000000014
:040000050800019D51
:00000001FF
