:020000040800F2
:1000000070060020290200089B03000893030008E3
:1000100097030008E30200081D0500080000000027
:10002000000000000000000000000000C103000804
:10003000E7020008000000009D030008B10400086A
:10004000430200084302000843020008430200087C
:10005000430200084302000843020008430200086C
:10006000430200084302000843020008430200085C
:10007000430200084302000843020008430200084C
:10008000430200084302000843020008430200083C
:10009000430200084302000843020008430200082C
:1000A000430200084302000843020008430200081C
:1000B000430200084302000843020008430200080C
:1000C00043020008430200084302000843020008FC
:1000D00043020008430200084302000843020008EC
:1000E00043020008430200084302000843020008DC
:1000F00043020008430200084302000843020008CC
:1001000043020008430200084302000843020008BB
:1001100043020008430200084302000843020008AB
:10012000430200084302000843020008430200089B
:10013000430200084302000843020008430200088B
:10014000430200084302000843020008430200087B
:10015000430200084302000843020008430200086B
:10016000430200084302000843020008430200085B
:10017000430200084302000843020008430200084B
:10018000430200084302000800F002F800F03CF8C7
:100190000AA090E8000C82448344AAF10107DA45E2
:1001A00001D100F031F8AFF2090EBAE80F0013F0F8
:1001B000010F18BFFB1A43F001031847F0040000B9
:1001C00010050000103A24BF78C878C1FAD8520749
:1001D00024BF30C830C144BF04680C6070470000C1
:1001E0000023002400250026103A28BF78C1FBD840
:1001F000520728BF30C148BF0B6070471FB500F0E1
:100200004FFA1FBD10B510BD00F031F81146FFF7D1
:10021000F5FF00F095F900F04FF803B4FFF7F2FF97
:1002200003BC00F057F80000094880470948004720
:10023000FEE7FEE7FEE7FEE7FEE7FEE7FEE7FEE796
:10024000FEE7FEE704480549054A064B70470000F3
:10025000B504000889010008700000207006002025
:10026000700200207002002070477047704775468A
:1002700000F02CF8AE4605006946534620F0070012
:10028000854618B020B5FFF7DDFFBDE820404FF0F0
:1002900000064FF000074FF000084FF0000B21F070
:1002A0000701AC46ACE8C009ACE8C009ACE8C0093D
:1002B000ACE8C0098D46704710B50446AFF3008026
:1002C0002046BDE81040FFF7A8BF00000048704777
:1002D0000C00002001491820ABBEFEE726000200FA
:1002E000704700BFFEE77047F0B50A4600210023C3
:1002F000002400BF3DE0012505FA01F3156805EA79
:1003000003049C4234D105684F000326BE40B54328
:10031000056015794E00B5400668354305601579CE
:10032000012D02D01579022D16D185684F000326C4
:10033000BE40B543856055794E00B540866835436B
:100340008560456801268E40B543456045689679CD
:100350008E40B6B235434560C5684F000326BE40A7
:10036000B543C560D5794E00B540C6683543C56014
:10037000491C1029BFD3F0BD0246002013690B4071
:100380000BB1012000E000207047418370470183DA
:10039000704700BFFEE700BFFEE7704770470000F0
:1003A00029B1064A12680243044B1A6004E0034A6A
:1003B00012688243014B1A607047000030380240D7
:1003C000704700000CB50020019000903448006890
:1003D00040F480303249086000BF3148006800F4C2
:1003E000003000900198401C0190009818B90198C5
:1003F000B0F5A04FF1D12A48006800F4003010B1E8
:100400000120009001E0002000900098012846D1D2
:1004100023484030006840F0805021494031086056
:100420002048006840F440401E4908601C480830DD
:1004300000681B49083108600846006840F4004025
:1004400008600846006840F4A05008601648091F7C
:100450000860081F006840F08070091F086000BF36
:100460000F48006800F000700028F9D040F20570D5
:100470000E4908600A480830006820F00300084967
:10048000083108600846006840F00200086000BFBC
:1004900003480830006800F00C000828F8D10CBDB3
:1004A000003802400070004008544007003C024001
:1004B0007047000010B51548006840F470001349FB
:1004C00008601348006840F00100114908600020EE
:1004D0000F49083108600E4800680E4908400C4971
:1004E00008600D48091D0860081F006820F480207E
:1004F000091F0860002006490C310860FFF762FF01
:100500004FF0006001498039086010BD88ED00E0BF
:1005100000380240FFFFF6FE1030002400BFFEE767
:1005200007E048F2084100BF0A1EA1F1010399B299
:10053000FAD1021EA0F1010398B2F2D17047000077
:1005400001210520FFF72CFF01204D490860002004
:10055000087148710120C8714A48FFF7C5FE4FF481
:100560000350474908600020087148710120C87194
:100570004548FFF7B9FE01210220FFF711FF2320B4
:100580003F490860012008710020887101204871EE
:100590000020C87123213D48FFF7F9FE38493B4848
:1005A000FFF7A2FE6AE068E001213648FFF7E4FEAB
:1005B000374908704FF400513348FFF7DDFE3549E5
:1005C000087040213048FFF7D7FE3349087080217A
:1005D0002D48FFF7D1FE314908702D48007848B109
:1005E0002C48007830B12C48007818B108460078C3
:1005F000002842D11420FFF793FF01212148FFF783
:10060000BBFE234908704FF400511F48FFF7B4FEAA
:100610002049087040211C48FFF7AEFE1E490870B3
:1006200080211948FFF7A8FE1C4908701848007877
:1006300020B920211548FFF7A8FE1EE015480078D4
:1006400020B901211148FFF7A0FE16E012480078FA
:1006500020B902210D48FFF798FE0EE00F48007800
:1006600058B920210948FFF792FE01210748FFF7FA
:100670008EFE02210548FFF78AFE95E793E700000A
:100680000400002000000240000802400004024074
:1006900000000020010000200200002003000020D4
:1006A0004FF04070E1EE100A70470000CC060008E1
:1006B000000000200C000000C4010008D80600085B
:1006C0000C00002064060000E001000800000000AB
:0806D000000000000000000022
:0400000508000229C4
:00000001FF
