:020000040800F2
:10000000A006002029020008E1030008D903000827
:10001000DD030008E3020008FD07000800000000FF
:10002000000000000000000000000000A104000823
:10003000E7020008000000005D04000891050008C8
:10004000430200084302000843020008430200087C
:10005000430200084302000843020008430200086C
:10006000430200084302000843020008430200085C
:10007000430200084302000843020008430200084C
:10008000430200084302000843020008430200083C
:10009000430200084302000843020008430200082C
:1000A000430200084302000843020008430200081C
:1000B00043020008FD05000843020008430200084F
:1000C00043020008430200084302000843020008FC
:1000D00043020008430200084302000843020008EC
:1000E00043020008430200084302000843020008DC
:1000F00043020008430200084302000843020008CC
:1001000043020008430200084302000843020008BB
:1001100043020008430200084302000843020008AB
:10012000430200084302000843020008430200089B
:10013000430200084302000843020008430200088B
:10014000430200084302000843020008430200087B
:10015000430200084302000843020008430200086B
:10016000430200084302000843020008430200085B
:10017000430200084302000843020008430200084B
:10018000430200084302000800F002F800F03CF8C7
:100190000AA090E8000C82448344AAF10107DA45E2
:1001A00001D100F031F8AFF2090EBAE80F0013F0F8
:1001B000010F18BFFB1A43F0010318475C08000049
:1001C0007C080000103A24BF78C878C1FAD85207DA
:1001D00024BF30C830C144BF04680C6070470000C1
:1001E0000023002400250026103A28BF78C1FBD840
:1001F000520728BF30C148BF0B6070471FB500F0E1
:1002000005FC1FBD10B510BD00F031F81146FFF719
:10021000F5FF00F005FB00F04FF803B4FFF7F2FF25
:1002200003BC00F057F80000094880470948004720
:10023000FEE7FEE7FEE7FEE7FEE7FEE7FEE7FEE796
:10024000FEE7FEE704480549054A064B70470000F3
:100250009505000889010008A0000020A0060020E4
:10026000A0020020A002002070477047704775462A
:1002700000F02CF8AE4605006946534620F0070012
:10028000854618B020B5FFF7DDFFBDE820404FF0F0
:1002900000064FF000074FF000084FF0000B21F070
:1002A0000701AC46ACE8C009ACE8C009ACE8C0093D
:1002B000ACE8C0098D46704710B50446AFF3008026
:1002C0002046BDE81040FFF7A8BF00000048704777
:1002D0003C00002001491820ABBEFEE726000200CA
:1002E000704700BFFEE77047F0B50A4600210023C3
:1002F000002400BF3DE0012505FA01F3156805EA79
:1003000003049C4234D105684F000326BE40B54328
:10031000056015794E00B5400668354305601579CE
:10032000012D02D01579022D16D185684F000326C4
:10033000BE40B543856055794E00B540866835436B
:100340008560456801268E40B543456045689679CD
:100350008E40B6B235434560C5684F000326BE40A7
:10036000B543C560D5794E00B540C6683543C56014
:10037000491C1029BFD3F0BDF0B5002300244D0760
:10038000ED0E02FA05F3CE1000F1200555F82650C7
:100390004E07F70E0F26BE40B543CF1000F12006E2
:1003A00046F82750CE1000F1200555F8265045EAB2
:1003B0000304CE1000F1200545F82640F0BD0246AA
:1003C000002013690B400BB1012000E000207047B2
:1003D000418370470183704700BFFEE700BFFEE71F
:1003E0007047000070B5002100230F22C4781CB3B1
:1003F000174C246804F4E064C4F5E064C4F30721F6
:10040000C1F10404E3B20A4144789C40E1B284782B
:10041000144021430C07210E0E4C057861550478D9
:1004200004F01F050124AC4005786D11AD0005F105
:10043000E025C5F8004109E0047804F01F05012417
:10044000AC40054D0678761145F8264070BD000099
:100450000CED00E000E400E080E100E07047000007
:1004600029B1064A12680243044B1A6004E0034AA9
:1004700012688243014B1A60704700003038024016
:1004800029B1064A12680243044B1A6004E0034A89
:1004900012688243014B1A607047000040380240E6
:1004A000704700000CB500200190009034480068AF
:1004B00040F480303249086000BF3148006800F4E1
:1004C000003000900198401C0190009818B90198E4
:1004D000B0F5A04FF1D12A48006800F4003010B107
:1004E0000120009001E0002000900098012846D1F2
:1004F00023484030006840F0805021494031086076
:100500002048006840F440401E4908601C480830FC
:1005100000681B49083108600846006840F4004044
:1005200008600846006840F4A05008601648091F9B
:100530000860081F006840F08070091F086000BF55
:100540000F48006800F000700028F9D040F20570F4
:100550000E4908600A480830006820F00300084986
:10056000083108600846006840F00200086000BFDB
:1005700003480830006800F00C000828F8D10CBDD2
:10058000003802400070004008544007003C024020
:100590007047000010B51548006840F4700013491A
:1005A00008601348006840F001001149086000200D
:1005B0000F49083108600E4800680E4908400C4990
:1005C00008600D48091D0860081F006820F480209D
:1005D000091F0860002006490C310860FFF762FF20
:1005E0004FF0006001498039086010BD88ED00E0DF
:1005F00000380240FFFFF6FE1030002410B5012144
:100600000D4800F03DF8012811D10C48007838B1B0
:1006100000200A49087020210948FFF7D9FE06E0AA
:1006200001200649087020210548FFF7D3FE01216B
:10063000014800F016F810BD000400400E00002034
:100640000004024021B1028842F08002028004E0EE
:1006500002884FF67F731A4002807047CA430282B5
:100660007047CA430282704721B1028842F00102FA
:10067000028004E002884FF6FE731A400280704741
:1006800030B50246002000230024158A05EA010344
:10069000958905EA010413B10CB1012000E00020A6
:1006A00030BD1AB183890B43838102E083898B4378
:1006B0008381704770B5002400220023058C4FF61B
:1006C000EF7635400584028C8388048B48F6FF75ED
:1006D0002C404FF6FF452C400D884FF6FF7606EA7A
:1006E00005252C434FF6DF752A408D8906EA05154E
:1006F0002A434D8806EA05152A43154DA84202D023
:10070000144DA8421DD14FF67F752A40CD894FF672
:10071000FF7606EA05152A434FF6BF752A408D88F5
:1007200006EA05152A434FF6FF352B404FF2FF75B9
:100730002B400D8A06EA85052B434D8A06EA85057E
:100740002B43838004838D688563028470BD000021
:1007500000000140000401400A460021018B4FF2D5
:10076000FF7319404FF6FF7303EA02231943018315
:10077000704781637047000000220288184B98423E
:100780000ED0184B98420BD0B0F1804F08D0164BCA
:10079000984205D0154B984202D0154B984204D18F
:1007A0004FF68F731A404B881A43124B984207D06A
:1007B000114B984204D04FF6FF431A400B891A435D
:1007C00002804B68C3620B880385054B984202D0B8
:1007D000044B984201D18B7A0386012383827047B0
:1007E00000000140000401400004004000080040F7
:1007F000000C0040001000400014004000BFFEE765
:1008000007E048F2084100BF0A1EA1F1010399B2B6
:10081000FAD1021EA0F1010398B2F2D17047000094
:1008200001210220FFF71CFE20206E4908600120F4
:10083000087100208871487120216B48FFF7CAFDBC
:1008400068496948FFF750FD01210220FFF718FEB3
:1008500041F287306549486042F2D00008800020AC
:1008600048806348FFF788FF01216148FFF7F6FEE3
:10087000012211465E48FFF714FF1D205D490870F4
:1008800001204870032088700120C8700846FFF7D7
:10089000A9FD01215648FFF7E7FE01210520FFF7DA
:1008A000DFFD01204F4908600020087148710120D8
:1008B000C8715148FFF718FD4FF4005049490860CE
:1008C0000020087148710120C8714C48FFF70CFDE9
:1008D00001210220FFF7D4FD01210220FFF7C0FD16
:1008E000022205214048FFF747FD20203D490860CE
:1008F0000220087103204871002088710120C8710E
:100900003948FFF7F1FC54203D4908800020488019
:1009100040F2F3104860002008813548FFF72CFFB3
:1009200060203849088001204880022088813048B2
:10093000FFF7C0FE08212E48FFF70EFF01212C48CB
:10094000FFF780FE01212A48FFF78EFE40F2F311E7
:100950002748FFF70EFF4FF4FA70FFF751FF4FF4EF
:1009600096712348FFF705FF4FF4FA70FFF748FF31
:1009700064211F48FFF7FDFE4FF4FA70FFF740FFB8
:1009800000211B48FFF7F5FE2BE001211A48FFF775
:1009900016FD78B91C480088B0F5FA7F1EDA1A48AF
:1009A0000088401C18490880084601881048FFF755
:1009B000E0FE13E04FF400511048FFF700FD68B966
:1009C00011480088002809DD0F480088401E0E49A4
:1009D0000880084601880648FFF7CBFE1420FFF781
:1009E0000FFFD2E7000000200004024010000020AA
:1009F00000040040080000200000024000080240FF
:100A00001C000020280000200C0000204FF0407047
:100A1000E1EE100A70470000380A000800000020CC
:100A200010000000C4010008480A0008100000205F
:100A300090060000E0010008000000000000000037
:080A40000000000000000000AE
:0400000508000229C4
:00000001FF
