:020000040800F2
:10000000280400209D010008DD04000863030008A7
:10001000D904000887020008530E00080000000001
:10002000000000000000000000000000A50600081D
:100030008B02000800000000590500089507000821
:10004000B7010008B7010008B7010008B7010008B0
:10005000B7010008B7010008B7010008B7010008A0
:10006000B7010008B7010008B7010008B701000890
:10007000B7010008B7010008B7010008B701000880
:10008000B7010008B7010008B7010008B701000870
:10009000B7010008B7010008B7010008B701000860
:1000A00025090008B7010008B7010008B7010008DA
:1000B000B7010008B7010008B7010008B701000840
:1000C000B7010008B7010008B7010008B701000830
:1000D000B7010008B7010008CD0C0008B7010008FF
:1000E000B7010008B7010008B7010008B701000810
:1000F000B7010008B7010008B7010008B701000800
:10010000B7010008B7010008B7010008B7010008EF
:10011000B7010008B7010008B7010008B7010008DF
:10012000B7010008B7010008B7010008B7010008CF
:10013000B7010008B7010008B7010008B7010008BF
:10014000B7010008B7010008B7010008B7010008AF
:10015000B7010008B7010008B7010008B70100089F
:10016000B7010008B7010008B7010008B70100088F
:10017000B7010008B7010008B7010008B70100087F
:10018000B7010008B7010008DFF80CD000F04AF80A
:10019000004800477D1100082804002006488047D9
:1001A00006480047FEE7FEE7FEE7FEE7FEE7FEE75C
:1001B000FEE7FEE7FEE7FEE7990700088901000871
:1001C0002DE9F05F0546002092469B46884606468C
:1001D000814640241BE0284641464746224600F01F
:1001E00042F853465A46C01A914110D31146184658
:1001F000224600F029F82D1A67EB01084F462246E7
:100200000120002100F020F817EB00094E41201ECC
:10021000A4F10104DFDC484631462A464346BDE8E6
:10022000F09F0000064C074D06E0E06840F0010337
:1002300094E8070098471034AC42F6D3FFF7A8FFC4
:10024000AC110008CC110008202A04DB203A00FA87
:1002500002F1002070479140C2F1200320FA03F31D
:10026000194390407047202A04DB203A21FA02F01B
:100270000021704721FA02F3D040C2F120029140E0
:1002800008431946704700BFFEE77047F0B50A46BD
:1002900000210023002400BF3DE0012505FA01F301
:1002A000156805EA03049C4234D105684F00032613
:1002B000BE40B543056015794E00B540066835432C
:1002C00005601579012D02D01579022D16D18568AA
:1002D0004F000326BE40B543856055794E00B540BA
:1002E000866835438560456801268E40B543456084
:1002F000456896798E40B6B235434560C5684F0073
:100300000326BE40B543C560D5794E00B540C668EA
:100310003543C560491C1029BFD3F0BDF0B500239B
:1003200000244D07ED0E02FA05F3CE1000F1200572
:1003300055F826504E07F70E0F26BE40B543CF1096
:1003400000F1200646F82750CE1000F1200555F8A0
:10035000265045EA0304CE1000F1200545F826405A
:10036000F0BD00BFFEE700001CB50121102000F029
:10037000F5F82020009002208DF804008DF805008B
:1003800001208DF8070069460448FFF77FFF03222C
:1003900005210248FFF7C2FF1CBD0000001002400B
:1003A00070B504460D462A46214602A000F054FDD1
:1003B00070BD00004952526563763A616464723AD6
:1003C00025642C20636F64653A25640D0A000000E3
:1003D0002DE9F0410027B8461848007800F04000A9
:1003E00008B9BDE8F0811548007820F040001349B5
:1003F0000870134804780088C0F307261048006886
:10040000C0F307450E4800684FEA106800200C4909
:1004100008606FEA0800C0B2A84200D0E1E7F043EC
:10042000C0B2A04203D00648008887B200E0274649
:1004300029463846FFF7B4FF00BFD2E7000000208E
:100440000C00002010B5FFF78FFF00F001F810BD81
:1004500000B587B00121080400F0A0F842F2107046
:100460000490A720ADF80C000020ADF81400ADF802
:100470000E0003A9174800F091FB0020ADF8000022
:10048000ADF802000120ADF804000020ADF8060030
:100490000320ADF8080069460E4800F010FB012269
:1004A00003210C4800F042FB01210A4800F0E7FA62
:1004B00018208DF8180001208DF8190003208DF800
:1004C0001A0001208DF81B0006A800F009F807B0FB
:1004D00000BD00000040014000BFFEE77047000083
:1004E00070B5002100230F22C4781CB3174C246878
:1004F00004F4E064C4F5E064C4F30721C1F104042A
:10050000E3B20A4144789C40E1B28478144021432C
:100510000C07210E0E4C05786155047804F01F0578
:100520000124AC4005786D11AD0005F1E025C5F85A
:10053000004109E0047804F01F050124AC40054D9A
:100540000678761145F8264070BD00000CED00E0FD
:1005500000E400E080E100E07047000029B1064AB5
:1005600012680243044B1A6004E0034A1268824393
:10057000014B1A60704700003038024029B1064A2A
:1005800012680243044B1A6004E0034A1268824373
:10059000014B1A60704700004038024029B1064AFA
:1005A00012680243044B1A6004E0034A1268824353
:1005B000014B1A607047000044380240F0B500213A
:1005C00000220024022500260223324F3F6807F054
:1005D0000C0121B1042905D0082937D105E02E4F9F
:1005E000076036E02D4F076033E02A4F3F1F3F681A
:1005F000C7F38056274F3F1F3F6807F03F036EB198
:10060000264FB7FBF3F7DFF88CC0ACF1040CDCF835
:1006100000C0CCF3881C07FB0CF40CE01E4FB7FBAA
:10062000F3F7DFF870C0ACF1040CDCF800C0CCF3D9
:10063000881C07FB0CF4174F3F1F3F68C7F30147A7
:100640007F1C7D00B4FBF5F7076002E0124F0760E6
:1006500000BF00BF0F4F3F6807F0F0010909104FBE
:100660007A5C0768D74047600A4F3F6807F4E0515B
:10067000890A0B4F7A5C4768D7408760054F3F680F
:1006800007F46041490B064F7A5C4768D740C76062
:10069000F0BD0000083802400024F40000127A0087
:1006A00010000020704700000CB500200190009061
:1006B0003448006840F480303249086000BF314857
:1006C000006800F4003000900198401C01900098F0
:1006D00018B90198B0F5A04FF1D12A48006800F48C
:1006E000003010B10120009001E00020009000983F
:1006F000012846D123484030006840F0805021490D
:10070000403108602048006840F440401E490860BD
:100710001C48083000681B4908310860084600681A
:1007200040F4004008600846006840F4A0500860AB
:100730001648091F0860081F006840F08070091FF4
:10074000086000BF0F48006800F000700028F9D072
:1007500040F205700E4908600A480830006820F031
:1007600003000849083108600846006840F00200AC
:10077000086000BF03480830006800F00C0008283B
:10078000F8D10CBD0038024000700040085440070A
:10079000003C02407047000010B51548006840F466
:1007A0007000134908601348006840F001001149C7
:1007B000086000200F49083108600E4800680E49A3
:1007C00008400C4908600D48091D0860081F0068B2
:1007D00020F48020091F0860002006490C310860C1
:1007E000FFF762FF4FF0006001498039086010BDDB
:1007F00088ED00E000380240FFFFF6FE10300024D4
:10080000F0B50C46154600210022068C4FF6FE7707
:100810003E400684018B028C4FF60C7631407E1CE4
:1008200006EA03162E4331434FF6F576324044F084
:100830000106324301830284F0BDF0B50C46154633
:10084000002100220026078C4FF6EF7C07EA0C07F8
:100850000784018B028C4FF6FF7707EA041640F6F7
:10086000FF4739404FF6FF7707EA033739434FF622
:10087000FF7707EA052739434FF65F773A4046F09E
:1008800010073A4301830284F0BDF0B50C461546CB
:10089000002100220026078C4FF6FF6C07EA0C07A8
:1008A0000784818B028C4FF6FF7707EA04264FF608
:1008B0000C7739404FF6FF7707EA03172F43394388
:1008C0004FF2FF573A4046F480773A4381830284DF
:1008D000F0BDF0B50C461546002100220026078C1D
:1008E0004EF6FF7C07EA0C070784818B028C4FF6DB
:1008F000FF7707EA043640F6FF4739404FF6FF77A7
:1009000007EA052739434FF6FF7707EA03373943EC
:1009100045F6FF773A4046F480573A438183028494
:10092000F0BD000010B502214A4800F0B7F80028D9
:1009300069D00221474800F09FF80021454800F0A7
:10094000FEF84548007800F0100030B942480078C1
:1009500040F010004049087010BD3E4800F09BF880
:10096000A0F50C703D49086008460068B0F5967F18
:100970000AD908460068B0F5487F05D238480068B3
:100980004008374908603EE034480068B0F5AF6F72
:100990000FD932480068B0F5E16F0AD230480068DC
:1009A00040082F4908600846006840F00040086091
:1009B00029E02A48006840F6980188420BD9274868
:1009C000006840F62821884205D226480068401C6D
:1009D0002449086017E02148006841F26801884214
:1009E00011D91E48006841F2883188420BD200209C
:1009F0001B4908601848007840F0800016490870CC
:100A00000020184908600121124800F047F8F0B1B1
:100A10000121104800F030F80F48007800F0800005
:100A2000A8B10D48007820F010000B490870084666
:100A3000007820F080000870094801680AA000F0E2
:100A40000BFA0548007840F040000349087000BFE9
:100A500082E7000000400140000000200400002068
:100A60000C000020080000204952526563763A5B72
:100A700025585D0D0A000000CA430282704721B16B
:100A8000028842F00102028004E002884FF6FE7301
:100A90001A40028070470146486B704730B50246E5
:100AA000002000230024158A05EA0103958905EA40
:100AB000010413B10CB1012000E0002030BD70B57D
:100AC00005460C46208850B92389A28861882846AB
:100AD000FFF796FEE188284600F033F825E02088ED
:100AE00004280AD12389A28861882846FFF7A5FE39
:100AF000E188284600F02EF817E0208808280AD15F
:100B00002389A28861882846FFF7BFFEE18828462E
:100B100000F02DF809E02389A28861882846FFF7B4
:100B2000D8FEE188284600F02BF870BD1AB1838901
:100B30000B43838102E083898B4383817047416249
:100B40007047028B4FF6F3731A400283028B0A43FD
:100B500002837047028B4FF2FF331A400283028BED
:100B60004FF6FF7303EA01231A4302837047828B17
:100B70004FF6F3731A408283828B0A438283704755
:100B8000828B4FF2FF331A408283828B4FF6FF73C2
:100B900003EA01231A43828370470000002202887F
:100BA000184B98420ED0184B98420BD0B0F1804FA2
:100BB00008D0164B984205D0154B984202D0154BE1
:100BC000984204D14FF68F731A404B881A43124B48
:100BD000984207D0114B984204D04FF6FF431A4079
:100BE0000B891A4302804B68C3620B880385054B4F
:100BF000984202D0044B984201D18B7A038601239C
:100C0000838270470000014000040140000400405E
:100C100000080040000C004000100040001400409C
:100C200010B588B0044601210846FFF797FC012162
:100C30004804FFF7A3FC072202212248FFF76EFBBE
:100C4000072203211F48FFF769FB0C2006900220B2
:100C50008DF81C008DF81D0000208DF81E0001206D
:100C60008DF81F0006A91748FFF710FB029400201B
:100C7000ADF80C00ADF80E00ADF81000ADF81400A2
:100C80000C20ADF8120002A90F4800F06FF82620E2
:100C90008DF8040003208DF805008DF80600012072
:100CA0008DF8070001A8FFF71BFC012240F2255137
:100CB000054800F036F80121034800F019F808B0A3
:100CC00010BD0000000002400044004010B50024A8
:100CD0002021064800F018F838B1044800F0B0F8B8
:100CE000C4B22146014800F0B0F810BD00440040F5
:100CF00021B1828942F40052828104E082894DF65A
:100D0000FF731A408281704702460020B1F5007FD0
:100D100000D100BF13880B400BB1012000E0002080
:100D20007047F0B50346002400260025002040F659
:100D30006A17B94200D100BF1846C1F3421401F04E
:100D40001F06012707FA06F5012C01D10C3004E03B
:100D5000022C01D1103000E014301AB107682F4383
:100D6000076002E00768AF430760F0BD2DE9FF4769
:100D700005460E460024A14600BFA046B08900B13A
:100D800000BF2C8A24F44054F08804432C82AC89A0
:100D900041F20C608443B08831890843718908436B
:100DA0000443AC81AC8A24F44074B0890443AC821F
:100DB0006846FFF703FC2048854202D01F48854261
:100DC00002D1DDF80C9001E0DDF80890A88900F46C
:100DD000004040B109EBC90000EB0910316849003F
:100DE000B0FBF1F707E009EBC90000EB091031682F
:100DF0008900B0FBF1F76420B7FBF0F00401200993
:100E0000642101FB1078A88900F4004040B1322031
:100E100000EBC800B0FBF1F000F00700044308E06D
:100E2000322000EB08106421B0FBF1F000F00F005D
:100E300004432C81BDE8FF870010014000140140ED
:100E400001468888C0F308007047C1F30802828019
:100E5000704700BFFEE700000FB4054B10B503A9B3
:100E6000044A029800F018F810BC5DF814FB00006A
:100E7000591100082000002002E008C8121F08C114
:100E8000002AFAD170477047002001E001C1121F0B
:100E9000002AFBD1704700002DE9FF4F8DB09B4623
:100EA0000F460446002606E025280BD05A460F9927
:100EB0009047641C761C20780028F5D111B030468C
:100EC000BDE8F08F0025A8460122984900E00543BF
:100ED00014F8013F203B02FA03F00842F7D12078D2
:100EE0002E2817D114F8010F45F004052A280ED03A
:100EF0006FF02F022078A0F1300109290AD808EB01
:100F0000880102EB410100EB0108641CF2E757F88D
:100F1000048B641C20786C280DD004DC4C2812D083
:100F20006A2811D104E074280DD07A280CD10AE087
:100F300045F4001507E0617845F48015814202D13F
:100F4000641C05F58015641C2278692A45D008DCEC
:100F5000002AB3D0582A69D0632A10D0642A08D155
:100F60003BE0702A67D0732A13D0752A5CD0782AA8
:100F70005CD010465A460F999047761CD3E017F87C
:100F8000040B8DF8000000208DF80100E9460120D7
:100F900003E057F8049B4FF0FF3069074FF000055E
:100FA00001D40AE06D1C45450DDA8542FADB19F8DB
:100FB00005100029F6D106E06D1C8542FCDB19F80E
:100FC00005100029F8D12E4404E019F8010B5A4607
:100FD0000F9990476D1EF8D2A5E00A200021CDE9B7
:100FE0000801C5F3025002280DD001CFC117031E1E
:100FF00071F100030DDA4FF0000CD0EB0C006CEB3C
:1010000001012D2308E0FF1D27F00707F7E8020183
:10101000EDE72B0504D52B238DF8283001233BE089
:10102000EB0739D02023F7E70A2000E01020002149
:10103000CDE9080107E01020002145F00405CDE9C5
:1010400008014FF00808C5F3025002280FD001CF65
:1010500000214FF0000A2B071FD5702A0DD0DDE9C3
:1010600008C38CF0100C5CEA030C0CD015E0FF1DDB
:1010700027F00707F7E80201EBE740228DF8282068
:101080004FF0010A0BE050EA010306D030238DF83F
:1010900028308DF8292002239A46582A04D024A209
:1010A0000DF120090B9209E026A2F9E7DDE90823FA
:1010B000FFF786F80B9B9B5C09F8013D50EA0102A3
:1010C000F4D1ADEB090020300890680701D44FF04F
:1010D00001080899884502DDA8EB010000E0002026
:1010E0008046002506E00AA85A46405D0F999047C1
:1010F0006D1C761C5545F6DB04E030205A460F99EE
:101100009047761CB8F10001A8F10108F5DC05E074
:1011100019F8010B5A460F999047761C0899481EFA
:1011200008900029F4DC641CC5E6000009280100D1
:10113000303132333435363738396162636465664D
:10114000000000003031323334353637383941420F
:10115000434445460000000070B504460D46E1B228
:101160000548FFF772FE00BF80210348FFF7CCFD62
:101170000028F9D0204670BD004400404FF4E13013
:10118000FFF74EFDFFF75EF903A0FFF765FE01E0F4
:10119000FFF71EF9FCE700004952526563762049CB
:1011A0006E6974204F4B0D0A00000000CC1100083E
:1011B0000000002024000000780E0008F011000854
:1011C0002400002004040000880E00080000000035
:1011D000000000000000000000000000000000000F
:1011E00001020304010203040607080900000000CD
:040000050800019D51
:00000001FF
