:020000040800F2
:10000000300400209D010008E10D0008D30700081E
:10001000DD0D00080D040008571300080000000063
:10002000000000000000000000000000C90F0008F0
:10003000C5050008000000005D0E0008B9100008AA
:10004000B7010008B7010008B7010008B7010008B0
:10005000B7010008B7010008B7010008B7010008A0
:10006000B7010008B7010008B7010008B701000890
:10007000B7010008B7010008B7010008B701000880
:10008000B7010008B7010008B7010008B701000870
:10009000B7010008B7010008B7010008B701000860
:1000A000B7010008B7010008B7010008B701000850
:1000B000B7010008B7010008B7010008B701000840
:1000C000B7010008B7010008B7010008B701000830
:1000D000B7010008B7010008D1110008B7010008F6
:1000E000B7010008B7010008B7010008B701000810
:1000F000B7010008B7010008B7010008B701000800
:10010000B7010008B7010008B7010008B7010008EF
:10011000B7010008B7010008B7010008B7010008DF
:10012000B7010008B7010008B7010008B7010008CF
:10013000B7010008B7010008B7010008B7010008BF
:10014000B7010008B7010008B7010008B7010008AF
:10015000B7010008B7010008B7010008B70100089F
:10016000B7010008B7010008B7010008B70100088F
:10017000B7010008B7010008B7010008B70100087F
:10018000B7010008B7010008DFF80CD000F02EF826
:1001900000480047811500083004002006488047C9
:1001A00006480047FEE7FEE7FEE7FEE7FEE7FEE75C
:1001B000FEE7FEE7FEE7FEE7BD1000088901000844
:1001C00030B50B46014600202022012409E021FA27
:1001D00002F59D4205D303FA02F5491B04FA02F524
:1001E0002844151EA2F10102F1DC30BD064C074D7A
:1001F00006E0E06840F0010394E8070098471034F7
:10020000AC42F6D3FFF7C4FF4C1E00086C1E00087A
:10021000CA430260704721B1826842F001028260E5
:1002200003E0826822F00102826070470021084AE0
:100230001168084A1140D0E900231A4383681A4321
:10024000C3681A431143044AC2F8041370470000FC
:1002500004230140E030FCFF002001400146C86C4F
:1002600080B270470246002013680B400BB101209A
:1002700000E000207047000030B502460020002357
:100280005068104C20400D790C6844EA0524204346
:10029000506090680C4C2040D1E903542C438D6889
:1002A0002C434D7944EA450420439060D06A20F401
:1002B00070000C7D641EE4B2234340EA0350D06218
:1002C00030BD0000FFFEFFFCFDF7FFC0F0B50446A7
:1002D0000D4600200021092D11DDE068A5F10A0678
:1002E00006EB4607072606FA07F18843A5F10A063A
:1002F00006EB460603FA06F10843E0600CE02069CD
:1003000005EB4507072606FA07F1884305EB450686
:1003100003FA06F108432061072A0FDA606B561EC4
:1003200006EB86071F2606FA07F18843561E06EBE2
:10033000860605FA06F10843606322E00D2A0FDA0B
:10034000206BD61F06EB86071F2606FA07F18843A7
:10035000D61F06EB860605FA06F10843206310E077
:10036000E06AA2F10D0606EB86071F2606FA07F1E2
:100370008843A2F10D0606EB860605FA06F108434E
:10038000E062F0BD816841F08041816070470021EA
:100390000160017141718160C160016101210175DC
:1003A000704700001CB50121084600F059FD4FF4CC
:1003B0008070009001208DF8040000208DF8060068
:1003C00001208DF8050000208DF8070069460448DB
:1003D00000F087F94FF48071014800F0F8F91CBD76
:1003E0000000024010B54FF48071024800F0EFF9B0
:1003F00010BD00000000024010B54FF480710248AB
:1004000000F0E3F910BD00000000024000BFFEE76D
:1004100010B50121102000F023FD00F01BF8402151
:10042000014800F0D4F910BD001002401CB5402076
:10043000009000208DF804008DF806008DF807006C
:1004400001208DF805006946014800F04AF91CBDFD
:10045000001002401CB54020009001208DF80400DF
:1004600000208DF806008DF8070001208DF80500AA
:100470006946024800F035F91CBD0000001002403A
:1004800010B56421002000F081F8002802DA4FF056
:10049000FF3010BD6421012000F078F8002802DA56
:1004A0004FF0FF30F5E7282001F04AF840210448DA
:1004B00000F082F9012800D1EBE70020E9E7000015
:1004C0000010024070B50024002500BF07E0600660
:1004D000040EFFF7D5FF2043C4B2681CC5B2082D37
:1004E000F5DB204670BD000010B5044614B94FF08E
:1004F000FF3010BDFFF7AEFF4021234800F067F941
:100500004021214800F061F9122001F00AF8402151
:100510001D4800F05CF91E2001F012F8FFF786FF7D
:10052000C821002000F032F8002802DA4FF0FF3036
:10053000DFE76421012000F029F8002802DA4FF0FB
:10054000FF30D6E7502000F0FBFFFFF7BBFF207025
:10055000FFF7B8FF6070FFF7B5FFA070FFF7B2FFBD
:10056000E070FFF7AFFF2071207861780844A17830
:100570000844E17808442179884202D04FF0FF30E6
:10058000B7E70020B5E700000010024070B506464E
:100590000C46002504E0681CC5B2012000F0D0FF25
:1005A0004021074800F008F9B04201D0A542F2D33B
:1005B000A54202D34FF0FF3070BD0020FCE70000E1
:1005C000001002407047000051B18200A2F1C04209
:1005D000126842F001038200A2F1C042136009E0F8
:1005E0008200A2F1C0421268034B1A408300A3F1BB
:1005F000C0431A6070470000FEFF0F00D0E90112EF
:100600001143C2681143026911434269114382696F
:100610001143C2691143026A1143426A1143826A5B
:100620001143C26A1143026B114302689200A2F1A6
:10063000C0421160816808290BD101688900A1F1CD
:10064000C041096841F0400201688900A1F1C04140
:100650000A60416B0968426B526841EA0211426BC1
:10066000926841EA0221426B928941EA0241426B5F
:10067000128A41EA0251426B127D41EA0261426BE9
:10068000926911430268521C9200A2F1C0421160AB
:10069000C16AB1F5804F1BD1816B0968826B5268CA
:1006A00041EA0211826B926841EA0221826B128A4E
:1006B00041EA0251826B127D41EA0261826B9269CA
:1006C000114302689200A2F1C042C2F8041107E08F
:1006D0006FF0704201688900A1F1C041C1F80421A6
:1006E0007047F0B50A4600210023002400BF3DE01A
:1006F000012505FA01F3156805EA03049C4234D18B
:1007000005684F000326BE40B543056015794E00CD
:10071000B5400668354305601579012D02D015797D
:10072000022D16D185684F000326BE40B543856073
:1007300055794E00B5408668354385604568012689
:100740008E40B5434560456896798E40B6B23543D4
:100750004560C5684F000326BE40B543C560D579E6
:100760004E00B540C6683543C560491C1029BFD34B
:10077000F0BDF0B5002300244D07ED0E02FA05F39D
:10078000CE1000F1200555F826504E07F70E0F2623
:10079000BE40B543CF1000F1200646F82750CE10DA
:1007A00000F1200555F8265045EA0304CE1000F16B
:1007B000200545F82640F0BD0246002013690B4095
:1007C0000BB1012000E00020704741837047018396
:1007D000704700BFFEE7000010B504462CB14FF48F
:1007E00080510548FFF7F1FF04E04FF480510248C3
:1007F000FFF7EDFF10BD0000000C024000B597B000
:100800000121084600F03CFB0620019000200290E8
:100810000620039000200490059006900790089011
:1008200009900A9010200B9000200C900D900E90D3
:100830000F9010904FF48050119000201290139060
:10084000149001A81590169008A8FFF7D7FE012173
:100850000020FFF7B9FE17B000BD000010B5002260
:100860002C23DC06238000BF02E0034B1980521CBE
:100870008242FAD310BD0000000002601CB50121C5
:10088000182000F0EDFA4CF6B370009002208DF8BD
:1008900004008DF8050000208DF806008DF8070093
:1008A00069464348FFF71DFF4FF680700090694688
:1008B0004048FFF716FF0C2200213D48FFF759FF83
:1008C0000C2201213A48FFF754FF0C22042138483A
:1008D000FFF74FFF0C2205213548FFF74AFF0C2296
:1008E00007213348FFF745FF0C2208213048FFF766
:1008F00040FF0C2209212E48FFF73BFF0C220A2162
:100900002B48FFF736FF0C220B212948FFF731FF58
:100910000C220E212648FFF72CFF0C220F21244821
:10092000FFF727FF0C2207212248FFF722FF0C22A6
:1009300008212048FFF71DFF0C2209211D48FFF761
:1009400018FF0C220A211B48FFF713FF0C220B2172
:100950001848FFF70EFF0C2211461648FFF709FF53
:100960000C220D211348FFF704FF0C220E21114821
:10097000FFF7FFFE0C220F210E48FFF7FAFE4FF49F
:100980008050009001208DF8040000208DF80500B3
:100990008DF806008DF8070069460548FFF7A1FEAF
:1009A0000220009069460348FFF79BFE1CBD000033
:1009B000000C02400010024010B50446072C00DD78
:1009C00010BD16480470204604EBD0714910A4EB0A
:1009D000410139B9F020124908804FF4A070114943
:1009E000088006E04FF4A0700D490880F0200D4902
:1009F0000880362001070880082040EA44100A4990
:100A0000088008480388064802880021084600F04C
:100A10000DF82C20C106088000BFD1E70C00002093
:100A200012000020140000200000026030B52A24CB
:100A30004FF0C0452C8004120F4D2C80C4B22C8086
:100A40008418641EC4F30F242C808418641EE4B23E
:100A50002C802B2465072C800C12074D2C80CCB2E7
:100A60002C80CC18641EC4F30F242C80CC18641E78
:100A7000E4B22C8030BD00000000026010B50120FF
:100A80004FF0C0410880782000F04BFD28204FF047
:100A9000C04108803A20088055200B490880112069
:100AA0004FF0C0410880642000F03BFD29204FF04A
:100AB000C0410880642000F034FD2C20C10608806D
:100AC000052000F02EFD10BD0000026010B50221CF
:100AD0000648FFF77AFE052000F023FD02210348B7
:100AE000FFF775FE052000F01CFD10BD0010024050
:100AF0002DE9F04106460F4614461D462B46224678
:100B000039463046FFF792FF04FB05F00249098899
:100B1000FFF7A4FEBDE8F081100000202DE9F05F92
:100B20008046894617461C46DDF828A00026B346B5
:100B3000A3B23A4649464046FFF778FF2C20C1064B
:100B4000088007FB04F0C11700EB5171C1F3CF0B14
:100B5000002516E0002610E01AF80500802131413A
:100B6000084020B1094800880949088003E0094885
:100B7000008807490880701C86B2082EECDB681CD0
:100B800085B25D45E6DBBDE8F09F00000E00002069
:100B900000000260100000202DE9F84F04460F46C7
:100BA00091461D464FF0000A00F034F8B0F804807A
:100BB00000F030F8C68823E0287800F03DF882463F
:100BC0006D1C12480088001B404502DA0024B81949
:100BD00087B20F480088C01BB04200DA002733B24A
:100BE000424639462046CDF800A0FFF797FFB9F1FD
:100BF000000F03D104EB080084B201E0A01984B215
:100C000028780028D8D1BDE8F88F00001200002015
:100C10001400002001480068704700000800002010
:100C20000148008870470000120000200148008839
:100C3000704700001400002001460A4800688088C0
:100C4000084B1B68DB885843A1F1200300FB03F22B
:100C5000D01702EB5070034B1B681B6803EBE000DE
:100C6000704700000800002010B5FFF707FEFFF7EF
:100C7000C5FDFFF72BFF0120FFF7AEFDFFF7FEFEDE
:100C800002480078FFF798FE10BD00000C0000201D
:100C9000024A1080024A1180704700000E000020B6
:100CA000100000201CB50121022000F0D9F82320FB
:100CB000009001208DF8040000208DF8060001202E
:100CC0008DF8050000208DF8070069460348FFF7FE
:100CD00008FD23210148FFF77AFD1CBD00040240F6
:100CE00010B523210148FFF772FD10BD000402403A
:100CF00010B523210148FFF768FD10BD0004024034
:100D000000B58BB00121080200F0DAF80020019054
:100D10004FF480300290002003904FF470600490F4
:100D200001A8FFF783FA05A8FFF731FB0020059023
:100D30008DF818008DF8190007900890099001208F
:100D40008DF8280005A90748FFF796FA022301222B
:100D50000C210448FFF7BAFA01210248FFF75BFAB9
:100D60000BB000BD002001401CB50121042000F0A3
:100D700077F80420009003208DF8040000208DF8FF
:100D8000070069460148FFF7ACFC1CBD00080240A3
:100D900010B5FFF7E9FFFFF7B3FF10BD10B56424EE
:100DA0000D48FFF7EFFA08E0201EA4F1010401D07E
:100DB000002010BD012000F0B4FB02210648FFF71F
:100DC00051FA0128F0D102210348FFF721FA024825
:100DD000FFF744FAEDE700000020014000BFFEE706
:100DE0007047000070B5002100230F22C4781CB3A7
:100DF000174C246804F4E064C4F5E064C4F30721EC
:100E0000C1F10404E3B20A4144789C40E1B2847821
:100E1000144021430C07210E0E4C057861550478CF
:100E200004F01F050124AC4005786D11AD0005F1FB
:100E3000E025C5F8004109E0047804F01F0501240D
:100E4000AC40054D0678761145F8264070BD00008F
:100E50000CED00E000E400E080E100E070470000FD
:100E600029B1064A12680243044B1A6004E0034A9F
:100E700012688243014B1A6070470000303802400C
:100E800029B1064A12680243044B1A6004E0034A7F
:100E900012688243014B1A607047000038380240E4
:100EA00029B1064A12680243044B1A6004E0034A5F
:100EB00012688243014B1A607047000040380240BC
:100EC00029B1064A12680243044B1A6004E0034A3F
:100ED00012688243014B1A60704700004438024098
:100EE000F0B5002100220024022500260223324F03
:100EF0003F6807F00C0121B1042905D0082937D13A
:100F000005E02E4F076036E02D4F076033E02A4F93
:100F10003F1F3F68C7F38056274F3F1F3F6807F0CA
:100F20003F036EB1264FB7FBF3F7DFF88CC0ACF18F
:100F3000040CDCF800C0CCF3881C07FB0CF40CE0BC
:100F40001E4FB7FBF3F7DFF870C0ACF1040CDCF810
:100F500000C0CCF3881C07FB0CF4174F3F1F3F6801
:100F6000C7F301477F1C7D00B4FBF5F7076002E083
:100F7000124F076000BF00BF0F4F3F6807F0F0013E
:100F80000909104F7A5C0768D74047600A4F3F68ED
:100F900007F4E051890A0B4F7A5C4768D7408760B5
:100FA000054F3F6807F46041490B064F7A5C47687C
:100FB000D740C760F0BD0000083802400024F400AC
:100FC00000127A0016000020704700000CB50020C7
:100FD000019000903448006840F480303249086045
:100FE00000BF3148006800F4003000900198401CB8
:100FF0000190009818B90198B0F5A04FF1D12A4896
:10100000006800F4003010B10120009001E00020E1
:1010100000900098012846D123484030006840F0F5
:1010200080502149403108602048006840F4404029
:101030001E4908601C48083000681B4908310860D8
:101040000846006840F4004008600846006840F424
:10105000A05008601648091F0860081F006840F08B
:101060008070091F086000BF0F48006800F0007022
:101070000028F9D040F205700E4908600A4808308F
:10108000006820F00300084908310860084600683D
:1010900040F00200086000BF03480830006800F01C
:1010A0000C000828F8D10CBD003802400070004048
:1010B00008544007003C02407047000010B5154836
:1010C000006840F47000134908601348006840F05D
:1010D00001001149086000200F49083108600E48DE
:1010E00000680E4908400C4908600D48091D086059
:1010F000081F006820F48020091F086000200649AE
:101100000C310860FFF762FF4FF000600149803941
:10111000086010BD88ED00E000380240FFFFF6FED9
:101120001030002410B588B0044601210846FFF7AE
:1011300097FE01214804FFF7B3FE0722022122484F
:10114000FFF717FB072203211F48FFF712FB0C20B4
:10115000069002208DF81C008DF81D0000208DF8EF
:101160001E0001208DF81F0006A91748FFF7B9FAE5
:1011700002940020ADF80C00ADF80E00ADF81000A0
:10118000ADF814000C20ADF8120002A90F4800F0D1
:101190006FF826208DF8040003208DF805008DF8E7
:1011A000060001208DF8070001A8FFF71BFE0122B1
:1011B00040F22551054800F036F80121034800F0BF
:1011C00019F808B010BD00000000024000440040C3
:1011D00010B500242021064800F018F838B1044862
:1011E00000F0B0F8C4B22146014800F0B0F810BDDC
:1011F0000044004021B1828942F40052828104E01F
:1012000082894DF6FF731A408281704702460020A2
:10121000B1F5007F00D100BF13880B400BB1012056
:1012200000E000207047F0B50346002400260025AA
:10123000002040F66A17B94200D100BF1846C1F33A
:10124000421401F01F06012707FA06F5012C01D10F
:101250000C3004E0022C01D1103000E014301AB13F
:1012600007682F43076002E00768AF430760F0BDDF
:101270002DE9FF4705460E460024A14600BFA046C3
:10128000B08900B100BF2C8A24F44054F088044394
:101290002C82AC8941F20C608443B08831890843C8
:1012A000718908430443AC81AC8A24F44074B0894A
:1012B0000443AC826846FFF713FE2048854202D003
:1012C0001F48854202D1DDF80C9001E0DDF808905E
:1012D000A88900F4004040B109EBC90000EB0910F7
:1012E00031684900B0FBF1F707E009EBC90000EBFA
:1012F000091031688900B0FBF1F76420B7FBF0F00A
:1013000004012009642101FB1078A88900F4004041
:1013100040B1322000EBC800B0FBF1F000F0070054
:10132000044308E0322000EB08106421B0FBF1F028
:1013300000F00F0004432C81BDE8FF87001001403E
:101340000014014001468888C0F308007047C1F3CB
:1013500008028280704700BFFEE700000FB4054B13
:1013600010B503A9044A029800F02CF810BC5DF8EF
:1013700014FB00005D150008280000200FB4084B86
:1013800010B504A902AA039800F01CF8044602A9AB
:10139000002000F0C1F8204610BC5DF814FB0000EE
:1013A0001915000802E008C8121F08C1002AFAD166
:1013B00070477047002001E001C1121F002AFBD1D5
:1013C000704700002DE9FF4F89B09B460446002579
:1013D00006E025280BD05A460B999047641C6D1CDB
:1013E00020780028F5D10DB02846BDE8F08F002701
:1013F000B8460122474900E0074314F8013F203B6B
:1014000002FA03F00842F7D120782E2819D114F8F7
:10141000010F47F004072A280ED06FF02F02207822
:10142000A0F1300109290CD808EB880102EB410139
:1014300000EB0108641CF2E70A98641C50F8048B66
:101440000A9020780028CED0642808D0692806D0D9
:1014500075281ED05A460B9990476D1C58E00A9982
:101460004FF00A0901C90A91002802DA40422D21F1
:1014700002E0390504D52B218DF82010012103E06D
:10148000F90704D02021F7E78A4608AE0DE00021D5
:10149000FAE70A994FF00A0901C90A91F7E74946A4
:1014A000FEF78EFE303106F8011D0028F7D1ADEBB6
:1014B000060000F12009780701D44FF00108C84563
:1014C00002DDA8EB090000E000208046002706E0CE
:1014D00008A85A46C05D0B9990476D1C7F1C574564
:1014E000F6DB04E030205A460B9990476D1CB8F1AA
:1014F0000001A8F10108F5DC05E016F8010B5A46D9
:101500000B9990476D1CB9F10001A9F10109F4DCB8
:10151000641C65E7092801000A68531C0B60107001
:10152000704707E048F2084100BF0A1EA1F101031D
:1015300099B2FAD1021EA0F1010398B2F2D170471C
:1015400006E01F2100BF0A1EA1F1010399B2FAD1E2
:10155000021EA0F1010398B2F3D1704770B50446A2
:101560000D46E1B20548FFF7F2FE00BF80210348B7
:10157000FFF74CFE0028F9D0204670BD0044004023
:1015800092B04FF4E130FFF7CDFDFEF741FFFFF7DA
:10159000FFFBFFF769FBFEF705FFFFF783FB002169
:1015A0004FF6FF70FFF774FBFFF740FB0546FFF7B0
:1015B00037FB06462B46324600210846FFF798FACD
:1015C0005BA300220A210846FFF7E6FA5EA3002289
:1015D00023210A20FFF7E0FA60A0FFF7BFFEA5E095
:1015E000FFF7DCFB044610A8FEF77EFF00287DD144
:1015F000FFF716FB0546B4232A463C210020FFF7DF
:1016000077FA9DF843309DF842205CA103A8FFF7CC
:10161000B5FE03AB002241210A20FFF7BDFA9DF879
:1016200041309DF8402059A103A8FFF7A7FE03AB66
:1016300000225A210A20FFF7AFFA224657A103A839
:10164000FFF79CFE03AB002273210A20FFF7A4FAE8
:101650009DF84100CDE900049DF840309DF84320FD
:101660009DF842104FA0FFF779FE9DF84200232815
:1016700002DAB4F5FA6F1DDBFEF7BEFEFFF738FBAA
:1016800000214FF47840FFF703FB4FA30022912184
:101690000A20FFF781FA50A30022AA210A20FFF7AF
:1016A0007BFA00214FF6FF70FFF7F2FA4FA0FFF729
:1016B00055FE37E0FEF796FEFFF712FB00214FF4D0
:1016C000FC60FFF7E5FA52A3002291210A20FFF700
:1016D00063FA53A30022AA210A20FFF75DFA002132
:1016E0004FF6FF70FFF7D4FA1CE0FFE7FFF798FA18
:1016F000054678232A463C210020FFF7F9F900210E
:101700004FF47840FFF7C4FA4AA3002241210A208F
:10171000FFF742FA00214FF6FF70FFF7B9FA4AA02F
:10172000FFF71CFE4FF47A70FFF7FBFE58E700004E
:10173000536D617274204B69746368656E205379D0
:101740007374656D000000004448543131202B2033
:101750004D51202B2042454550000000536D6172D1
:1017600074204B69746368656E2053797374656D7A
:101770002053746172740D0A0000000054656D708E
:101780003A2025642E2564204300000048756D69C9
:101790003A2025642E256420252500004D513A204D
:1017A0002564000054656D703A25642E256443203D
:1017B0002048756D693A25642E2564252520204D25
:1017C000513A25640D0A00005374617475733A2010
:1017D000414C41524D21000044616E6765722064A6
:1017E0006574656374656421000000005761726E62
:1017F000696E6721204B69746368656E2064616E51
:10180000676572206465746563746564210D0A0000
:101810005374617475733A205341464520000000AB
:10182000456E7669726F6E6D656E74206E6F726D47
:10183000616C000044485431312052656164204598
:1018400072726F7221000000444854313120526599
:101850006164204572726F72210D0A000000000061
:101860000000000000000000000000000000001860
:101870001818181818080008180000000000003494
:1018800024242400000000000000000000000000EC
:1018900016247F2424247E24240000000000000855
:1018A0003E6848681C1612127C101000000000618F
:1018B000D296740810162949C600000000000000E6
:1018C0003C646438724ACE467F0000000000001875
:1018D00018181800000000000000000000000004BC
:1018E000081810303030301010180C0400000020A0
:1018F0001008080C0404040C08181020000000084C
:101900000A341C6A0800000000000000000000000B
:1019100000001818187F18181800000000000000B8
:10192000000000000000001818083000000000004F
:1019300000000000003C000000000000000000006B
:101940000000000000000018180000000000000265
:1019500006040C08081010202040000000000000C1
:101960003C6642475B7342663C000000000000009A
:1019700018784808080808087E00000000000000E9
:101980003C460606040810207E000000000000000F
:101990007C0606043C0202067C00000000000000F9
:1019A0000C1C14246444FF04040000000000000028
:1019B0007E6060607E0202067C0000000000000085
:1019C0001E306048764242623C0000000000000089
:1019D0007E0206040C081810300000000000000011
:1019E0003C6242361C6642423C000000000000009F
:1019F0003C664242661A02047800000000000000C3
:101A00000000181800000018180000000000000076
:101A1000000018180000001818083000000000002E
:101A2000000004183060100C0600000000000000E8
:101A3000000000007E007E000000000000000000AA
:101A40000000301804060C102000000000000030D8
:101A50001C06060618100010100000000000001CF4
:101A6000224141DDB5A5A5AF94C0403C0000000077
:101A7000181C342426627E43C100000000000000D0
:101A80007C4642467C4242427C000000000000004E
:101A90001E204040404040603E000000000000002A
:101AA0007C46424343434246780000000000000069
:101AB0007E6060607E6060607E000000000000006C
:101AC0007E6060607E60606060000000000000007A
:101AD0001E604040CE4242623E0000000000000016
:101AE000424242427E424242420000000000000068
:101AF0007E181818181818187E0000000000000042
:101B00007C04040404040444780000000000000085
:101B10004244485070584C4442000000000000000D
:101B200020202020202020203E0000000000000077
:101B30006266675F5B5BC1C1C1000000000000001E
:101B4000626272525A4A4E4646000000000000008F
:101B50003C6243C3C3C343623C000000000000007A
:101B60007C464242467840404000000000000000B1
:101B70003C6243C3C3C343623C180F000000000033
:101B80007C6662667C6C6466620000000000000097
:101B90003E6040601C0602027C0000000000000065
:101BA0007F181818181818181800000000000000F6
:101BB00042424242424242623C00000000000000B9
:101BC000C14342622624341C1800000000000000BB
:101BD000C1C141495B5B7666660000000000000001
:101BE00043663418181C2466C3000000000000007F
:101BF000C14266341C1818181800000000000000CC
:101C00007E02040C181020607E0000000000001C02
:101C100010101010101010101010101C00000040B8
:101C20002020101008080C04060200000000003CF0
:101C30000C0C0C0C0C0C0C0C0C0C0C3C00000000E4
:101C4000181C2462000000000000000000000000DA
:101C50000000000000000000000000FF0000002065
:101C60001000000000000000000000000000000064
:101C700000003C06023E42467A00000000000040A0
:101C800040405C62424242427C0000000000000092
:101C900000001E20604060203E00000000000002A6
:101CA00002023E62424242663A000000000000002A
:101CB00000003C62427E40603E0000000000000FD9
:101CC0001810107E1010101010000000000000000E
:101CD00000003F66426658403E43423C00000040E0
:101CE00040405C6242424242420000000000001854
:101CF00018007808080808087E00000000000004AA
:101D00000C007C040404040404040C78000000604B
:101D10006060626C787068646200000000000078A7
:101D200008080808080808087E00000000000000F5
:101D30000000764B4B4B4B4B4B000000000000006B
:101D400000005C624242424242000000000000008B
:101D500000003C62424342623C0000000000000080
:101D600000005C62424242427C4040400000000071
:101D700000003E62424242663A0202020000000057
:101D800000006E7263606060600000000000000090
:101D900000003E20203C06027C0000000000000005
:101DA0001010FE10101010101E00000000000000A7
:101DB00000004242424242663A0000000000000039
:101DC00000004342662434181800000000000000A0
:101DD0000000C1C15B5A5E666600000000000000A2
:101DE000000062261C181C26620000000000000093
:101DF000000043426624341C181830E00000000044
:101E000000007E060C1810207E0000000000000E6E
:101E100018101010307010101010180E0000080864
:101E20000808080808080808080808080000003022
:101E3000180808080C0E08080808183000000000F0
:101E400000000000714B0600000000006C1E00083E
:101E5000000000202C000000A4130008981E0008B9
:101E60002C00002004040000B41300085C180008D3
:101E7000080010000000002002000000FFFFF0003A
:101E800040010000000001020304010203040607F0
:081E9000080900000000000039
:040000050800019D51
:00000001FF
