:020000040800F2
:100000001807002029020008CF030008C7030008D2
:10001000CB030008E3020008EB0800080000000022
:10002000000000000000000000000000890500083A
:10003000E7020008000000005D04000879060008DF
:10004000430200084302000843020008430200087C
:10005000430200084302000843020008430200086C
:10006000430200084302000843020008430200085C
:10007000430200084302000843020008430200084C
:10008000430200084302000843020008430200083C
:10009000430200084302000843020008430200082C
:1000A000430200084302000843020008430200081C
:1000B000430200084302000843020008430200080C
:1000C00043020008430200084302000843020008FC
:1000D0004302000843020008E50600084302000846
:1000E00043020008430200084302000843020008DC
:1000F00043020008430200084302000843020008CC
:1001000043020008430200084302000843020008BB
:1001100043020008430200084302000843020008AB
:10012000430200084302000843020008430200089B
:10013000430200084302000843020008430200088B
:10014000430200084302000843020008430200087B
:10015000430200084302000843020008430200086B
:10016000430200084302000843020008430200085B
:10017000430200084302000843020008430200084B
:10018000430200084302000800F002F800F03CF8C7
:100190000AA090E8000C82448344AAF10107DA45E2
:1001A00001D100F031F8AFF2090EBAE80F0013F0F8
:1001B000010F18BFFB1A43F001031847C0090000E4
:1001C000E0090000103A24BF78C878C1FAD8520775
:1001D00024BF30C830C144BF04680C6070470000C1
:1001E0000023002400250026103A28BF78C1FBD840
:1001F000520728BF30C148BF0B6070471FB500F0E1
:10020000B7FC1FBD10B510BD00F031F81146FFF767
:10021000F5FF00F07BFB00F04FF803B4FFF7F2FFAF
:1002200003BC00F057F80000094880470948004720
:10023000FEE7FEE7FEE7FEE7FEE7FEE7FEE7FEE796
:10024000FEE7FEE704480549054A064B70470000F3
:100250007D06000889010008180100201807002009
:100260001803002018030020704770477047754638
:1002700000F02CF8AE4605006946534620F0070012
:10028000854618B020B5FFF7DDFFBDE820404FF0F0
:1002900000064FF000074FF000084FF0000B21F070
:1002A0000701AC46ACE8C009ACE8C009ACE8C0093D
:1002B000ACE8C0098D46704710B50446AFF3008026
:1002C0002046BDE81040FFF7A8BF00000048704777
:1002D000B800002001491820ABBEFEE7260002004E
:1002E000704700BFFEE77047F0B50A4600210023C3
:1002F000002400BF3DE0012505FA01F3156805EA79
:1003000003049C4234D105684F000326BE40B54328
:10031000056015794E00B5400668354305601579CE
:10032000012D02D01579022D16D185684F000326C4
:10033000BE40B543856055794E00B540866835436B
:100340008560456801268E40B543456045689679CD
:100350008E40B6B235434560C5684F000326BE40A7
:10036000B543C560D5794E00B540C6683543C56014
:10037000491C1029BFD3F0BDF0B5002300244D0760
:10038000ED0E02FA05F3CE1000F1200555F82650C7
:100390004E07F70E0F26BE40B543CF1000F12006E2
:1003A00046F82750CE1000F1200555F8265045EAB2
:1003B0000304CE1000F1200545F82640F0BD41832E
:1003C00070470183704700BFFEE700BFFEE770473C
:1003D00070B5002100230F22C4781CB3174C246889
:1003E00004F4E064C4F5E064C4F30721C1F104043B
:1003F000E3B20A4144789C40E1B28478144021433E
:100400000C07210E0E4C05786155047804F01F0589
:100410000124AC4005786D11AD0005F1E025C5F86B
:10042000004109E0047804F01F050124AC40054DAB
:100430000678761145F8264070BD00000CED00E00E
:1004400000E400E080E100E002490143024A11605B
:10045000704700000000FA050CED00E07047000056
:1004600029B1064A12680243044B1A6004E0034AA9
:1004700012688243014B1A60704700003038024016
:1004800029B1064A12680243044B1A6004E0034A89
:1004900012688243014B1A607047000040380240E6
:1004A000F0B5002100220024022500260223324F4D
:1004B0003F6807F00C0121B1042905D0082937D184
:1004C00005E02E4F076036E02D4F076033E02A4FDE
:1004D0003F1F3F68C7F38056274F3F1F3F6807F015
:1004E0003F036EB1264FB7FBF3F7DFF88CC0ACF1DA
:1004F000040CDCF800C0CCF3881C07FB0CF40CE007
:100500001E4FB7FBF3F7DFF870C0ACF1040CDCF85A
:1005100000C0CCF3881C07FB0CF4174F3F1F3F684B
:10052000C7F301477F1C7D00B4FBF5F7076002E0CD
:10053000124F076000BF00BF0F4F3F6807F0F00188
:100540000909104F7A5C0768D74047600A4F3F6837
:1005500007F4E051890A0B4F7A5C4768D7408760FF
:10056000054F3F6807F46041490B064F7A5C4768C6
:10057000D740C760F0BD0000083802400024F400F6
:1005800000127A0000000020704700000CB5002027
:10059000019000903448006840F48030324908608F
:1005A00000BF3148006800F4003000900198401C02
:1005B0000190009818B90198B0F5A04FF1D12A48E0
:1005C000006800F4003010B10120009001E000202C
:1005D00000900098012846D123484030006840F040
:1005E00080502149403108602048006840F4404074
:1005F0001E4908601C48083000681B490831086023
:100600000846006840F4004008600846006840F46E
:10061000A05008601648091F0860081F006840F0D5
:100620008070091F086000BF0F48006800F000706C
:100630000028F9D040F205700E4908600A480830D9
:10064000006820F003000849083108600846006887
:1006500040F00200086000BF03480830006800F066
:100660000C000828F8D10CBD003802400070004092
:1006700008544007003C02407047000010B5154880
:10068000006840F47000134908601348006840F0A7
:1006900001001149086000200F49083108600E4828
:1006A00000680E4908400C4908600D48091D0860A3
:1006B000081F006820F48020091F086000200649F8
:1006C0000C310860FFF762FF4FF00060014980398C
:1006D000086010BD88ED00E000380240FFFFF6FE24
:1006E0001030002410B500242021154800F058F8DF
:1006F00020B3134800F0F0F8C4B21248007870B18B
:100700000A2C1BD10120104908701048008810499C
:10071000088000200D4908800A4908700EE00D2C61
:1007200003D101200749087008E00A4807490988F1
:10073000445406480088401C0449088010BD00004D
:10074000004400401200002013000020140000208C
:10075000160000202800002070B505460E46002433
:100760000CE000BF4021074800F01AF80028F9D03B
:10077000295D044800F0B5F8601C84B2B442F0DB97
:1007800070BD00000044004021B1828942F4005253
:10079000828104E082894DF6FF731A40828170479E
:1007A00002460020B1F5007F00D100BF13880B4046
:1007B0000BB1012000E000207047F0B50346002493
:1007C00000260025002040F66A17B94200D100BF7C
:1007D0001846C1F3421401F01F06012707FA06F577
:1007E000012C01D10C3004E0022C01D1103000E0CA
:1007F00014301AB107682F43076002E00768AF435F
:100800000760F0BD2DE9FF4705460E460024A146CE
:1008100000BFA046B08900B100BF2C8A24F4405428
:10082000F08804432C82AC8941F20C608443B08888
:1008300031890843718908430443AC81AC8A24F4AC
:100840004074B0890443AC826846FFF729FE204813
:10085000854202D01F48854202D1DDF80C9001E0AC
:10086000DDF80890A88900F4004040B109EBC90008
:1008700000EB091031684900B0FBF1F707E009EB24
:10088000C90000EB091031688900B0FBF1F7642062
:10089000B7FBF0F004012009642101FB1078A8895E
:1008A00000F4004040B1322000EBC800B0FBF1F092
:1008B00000F00700044308E0322000EB0810642138
:1008C000B0FBF1F000F00F0004432C81BDE8FF877E
:1008D000001001400014014001468888C0F3080060
:1008E0007047C1F308028280704700BFFEE707E04F
:1008F00048F2084100BF0A1EA1F1010399B2FAD1E2
:10090000021EA0F1010398B2F2D17047012102202A
:10091000FFF7A6FD23207A49086001200871002016
:100920008871012048710020C87123217548FFF7A4
:1009300048FD73497348FFF7D7FC01210846FFF7CC
:100940008FFD4FF480706E4908600120087100200F
:100950008871012048710020C8714FF480716A4885
:10096000FFF72FFD66496848FFF7BEFC01210846E6
:10097000FFF776FD01214804FFF782FD0C20604956
:100980000860022008714871002088710120C87138
:100990005D48FFF7A9FC072202215B48FFF7ECFC4A
:1009A000072203215848FFF7E7FC4FF4E13057498D
:1009B000086000208880C880088188810C204881D8
:1009C0005348FFF71FFF01215148FFF7DDFE0122C9
:1009D00040F225514E48FFF7F0FE4FF4E060FFF77C
:1009E00033FD26204B490870012048700320887091
:1009F0000120C8700846FFF7EBFC112146A0FFF765
:100A0000ABFE7BE049480078002877D000204749BA
:100A1000087047480088042863D146480078422877
:100A20001DD144484078452819D14248807845284E
:100A300015D14048C078502811D14FF48071324808
:100A4000FFF7BDFC3220FFF752FF4FF480712E48B4
:100A5000FFF7B7FC082138A0FFF77EFE44E03548D9
:100A600000784C2839D133484078452835D1314871
:100A70008078442831D12F48C078312808D12021EE
:100A80002048FFF79CFC06212EA0FFF765FE1CE026
:100A90002848C078322808D101211A48FFF78FFC76
:100AA00006212AA0FFF758FE0FE02248C07833281D
:100AB00008D102211348FFF782FC062125A0FFF789
:100AC0004BFE02E0012025490870C820FFF70FFF08
:100AD00023210C48FFF775FC06E001201F49087030
:100AE00002E001201D4908701C48007830B1002048
:100AF0001A4908700C211AA0FFF72EFE82E70000A9
:100B00001C0000200004024000000240A800002059
:100B1000004400402400002048656C6C6F2045763E
:100B20006572796F6E65210D0A00000013000020C8
:100B30001600002028000020B7E4C3F9C6F70D0A0C
:100B4000000000004C4544310D0A00004C45443281
:100B50000D0A00004C4544330D0A00001800002027
:100B6000D6B8C1EEB4EDCEF3A3A10D0A000000008B
:100B70004FF04070E1EE100A704700009C0B000837
:100B80000000002028000000C4010008C40B000879
:100B900028000020F0060000E0010008000000002E
:100BA0000102030401020304060708090000000013
:100BB0000000000000000000000000000000000035
:040BC0000000000031
:0400000508000229C4
:00000001FF
