:020000040800F2
:10000000480600209D010008DD050008AB0300083C
:10001000AF030008CF0200083F10000800000000F6
:10002000000000000000000000000000FD0B0008C0
:10003000D302000800000000B10A0008ED0C00081F
:10004000B7010008B7010008B7010008B7010008B0
:10005000B7010008B7010008B7010008B7010008A0
:10006000B7010008B7010008B7010008B701000890
:10007000B7010008B7010008B7010008B701000880
:10008000B7010008B7010008B7010008B701000870
:10009000B7010008B7010008B7010008B701000860
:1000A000B7010008B7010008B7010008B701000850
:1000B000B7010008B7010008B7010008B701000840
:1000C000B7010008B7010008B7010008B701000830
:1000D000B7010008050E0008450E0008B70100082A
:1000E000B7010008B7010008B7010008B701000810
:1000F000B7010008B7010008B7010008B701000800
:10010000B7010008B7010008B7010008B7010008EF
:10011000B7010008B7010008B7010008B7010008DF
:10012000B7010008B7010008B7010008B7010008CF
:10013000B7010008B7010008B7010008B7010008BF
:10014000B7010008B7010008B7010008B7010008AF
:10015000B7010008B7010008B7010008B70100089F
:10016000B7010008B7010008B7010008B70100088F
:10017000B7010008B7010008B7010008B70100087F
:10018000B7010008B7010008DFF80CD000F06EF8E6
:1001900000480047B515000848060020064880477B
:1001A00006480047FEE7FEE7FEE7FEE7FEE7FEE75C
:1001B000FEE7FEE7FEE7FEE7F10C00088901000814
:1001C00040EA01039B0703D009E008C9121F08C0D9
:1001D000042AFAD203E011F8013B00F8013B521E59
:1001E000F9D27047D2B201E000F8012B491EFBD2D0
:1001F00070470022F6E710B513460A460446194632
:10020000FFF7F0FF204610BD2DE9F05F0546002006
:1002100092469B4688460646814640241BE0284677
:1002200041464746224600F042F853465A46C01A15
:10023000914110D311461846224600F029F82D1A94
:1002400067EB01084F4622460120002100F020F80C
:1002500017EB00094E41201EA4F10104DFDC4846E3
:1002600031462A464346BDE8F09F0000064C074D44
:1002700006E0E06840F0010394E807009847103476
:10028000AC42F6D3FFF784FF80160008A0160008E2
:10029000202A04DB203A00FA02F100207047914046
:1002A000C2F1200320FA03F3194390407047202A3B
:1002B00004DB203A21FA02F00021704721FA02F310
:1002C000D040C2F12002914008431946704700BF58
:1002D000FEE77047F0B50A4600210023002400BF66
:1002E0003DE0012505FA01F3156805EA03049C4287
:1002F00034D105684F000326BE40B543056015792B
:100300004E00B5400668354305601579012D02D0D1
:100310001579022D16D185684F000326BE40B543DE
:10032000856055794E00B5408668354385604568DF
:1003300001268E40B5434560456896798E40B6B239
:1003400035434560C5684F000326BE40B543C560D0
:10035000D5794E00B540C6683543C560491C1029A3
:10036000BFD3F0BDF0B5002300244D07ED0E02FA17
:1003700005F3CE1000F1200555F826504E07F70E74
:100380000F26BE40B543CF1000F1200646F8275097
:10039000CE1000F1200555F8265045EA0304CE1092
:1003A00000F1200545F82640F0BD00BFFEE700BF84
:1003B000FEE7000010B588B004460121084600F0B1
:1003C00079FB0121102000F095FB4FF4C0600690EE
:1003D00002208DF81C0000208DF81E0001208DF8F1
:1003E0001F0002208DF81D0006A91B48FFF772FFB1
:1003F000072209211848FFF7B5FF07220A211648EE
:10040000FFF7B0FF02940020ADF80C00ADF80E002D
:10041000ADF81000ADF814000C20ADF8120002A9E0
:100420000E4800F099FD012240F225510B4800F0E2
:100430006DFD0121094800F026FD25208DF80400FE
:1004400001208DF805008DF806008DF8070001A841
:1004500000F0C6F808B010BD0000024000100140D6
:1004600070B505460E46002423E0642001F080F8B4
:10047000641C1248006848B110480068844205D9DD
:100480000FA000F0DFFD4FF0FF3070BD00F050F91D
:10049000002800DC0DE00F4800F09EF9002800DA8B
:1004A00007E03146284600F007FA002800DA00E0AD
:1004B00000E0DAE700BF0020E7E7000000000020CE
:1004C0004E464320526561642054696D654F7574D2
:1004D0000D0A00000C0000201FB500240020009031
:1004E00001900290039055208DF800008DF80100D6
:1004F0001DE00E21684600F06DFA012000F030FA90
:1005000018B90DA000F09EFD12E0642001F030F853
:10051000641C0D48006850B10B480068844206D93D
:100520000AA000F08FFD4FF0FF3004B010BDE0E7EF
:1005300000BF0020F9E700004E46432057616B657D
:100540005550204F4B0D0A00000000204E4643201E
:1005500057616B6555502054696D654F75740D0A70
:100560000000000070B505460E46002423E064201C
:1005700000F0FEFF641C1248006848B11048006893
:10058000844205D90FA000F05DFD4FF0FF3070BD33
:1005900000F0CEF8002800DC0DE00F4800F01CF958
:1005A000002800DA07E03146284600F02BFA002840
:1005B00000DA00E000E0DAE700BF0020E7E7000033
:1005C000000000204E46432057726974652054692C
:1005D0006D654F75740D0A000C0000207047000017
:1005E00070B5002100230F22C4781CB3174C246877
:1005F00004F4E064C4F5E064C4F30721C1F1040429
:10060000E3B20A4144789C40E1B28478144021432B
:100610000C07210E0E4C05786155047804F01F0577
:100620000124AC4005786D11AD0005F1E025C5F859
:10063000004109E0047804F01F050124AC40054D99
:100640000678761145F8264070BD00000CED00E0FC
:1006500000E400E080E100E010B50023002200216A
:10066000154800880F2801DA481E10BD1348427A49
:100670005042C1B21148807A884202D04FF0FF3018
:10068000F3E70021002307E003F10B000B4C205C93
:100690000844C1B2581CC3B29342F5DB4842C1B210
:1006A00002F10B00054C205C884202D04FF0FF3075
:1006B000DBE70020D9E70000180000203000002010
:1006C00001460022002300BF05E0501D085C1844CD
:1006D000C3B2501CC2B2C8789042F6DC5842C0B2D5
:1006E0007047000010B5002240F225510D4800F07F
:1006F0000DFC002404E000200B490855601C84B266
:10070000B4F5FA7FF7D300200849088040F225515C
:10071000044800F0A9FB012240F22551014800F0F5
:10072000F5FB10BD00100140300000201800002033
:100730003EB5002000900190029000248DF800004A
:100740008DF80100FF208DF8020004208DF80300D1
:100750009DF803004042C0B28DF80400D4208DF80B
:1007600005004A208DF8060001208DF807000020C2
:100770008DF808006846FFF7A3FF8DF809000020F8
:100780008DF80A000B21684600F024F9C82000F01B
:10079000EFFEFFF761FF002801DA641E14E00C4849
:1007A000407B012801D000240EE00948C07C0949A3
:1007B00008700748007D48700548407D88700448EF
:1007C000807DC870012400BFFFF78CFF20463EBD2E
:1007D000300000200400002030B587B00446182106
:1007E00001A8FFF706FD002500208DF804008DF814
:1007F0000500FF208DF806000F208DF807009DF8FA
:1008000007004042C0B28DF80800D4208DF80900DE
:1008100040208DF80A0001208DF80B0060208DF833
:100820000C0003208DF80D0020788DF80E00607804
:100830008DF80F00A0788DF81000E0788DF8110089
:1008400020798DF8120060798DF81300184800782F
:100850008DF81400164840788DF8150014488078FB
:100860008DF816001248C0788DF8170001A8FFF720
:1008700027FF8DF8180000208DF81900162101A817
:1008800000F0A8F8C82000F073FEFFF7E5FE00288E
:1008900001DA6D1E07E00748407B10B14FF0FF35CD
:1008A00001E0002500BFFFF71DFF284607B030BD5F
:1008B0000400002030000020FEB505460C46002054
:1008C00000900190029000260CB9401EFEBD002051
:1008D0008DF800008DF80100FF208DF80200052042
:1008E0008DF803009DF803004042C0B28DF804006B
:1008F000D4208DF8050040208DF8060001208DF8E9
:10090000070030208DF808008DF809506846FFF781
:10091000D7FE8DF80A0000208DF80B000C216846E8
:1009200000F058F8C82000F023FEFFF795FE0028DD
:1009300002DA4FF0FF360DE00848407B10B14FF06F
:10094000FF3607E0102205490E312046FFF738FC3C
:10095000002600BFFFF7C6FE3046B7E73000002094
:100960003EB50446002000900190029000258DF8CD
:1009700000008DF80100FF208DF8020003208DF8A3
:1009800003009DF803004042C0B28DF80400D4205B
:100990008DF8050014208DF806008DF80740684694
:1009A000FFF78EFE8DF8080000208DF809000A215F
:1009B000684600F00FF8C82000F0DAFDFFF74CFEA3
:1009C000002801DA6D1E01E0002500BFFFF78AFE56
:1009D00028463EBD70B505460E46002400BF0CE01B
:1009E000295D074800F027FB00BF8021044800F084
:1009F00056FA0028F9D0601CC4B2B442F0DB70BDD6
:100A00000010014070B588B004460D461C2101A8B5
:100A1000FFF7EFFB002615B9701E08B070BD00206F
:100A20008DF804008DF80500FF208DF806001520D4
:100A30008DF807009DF807004042C0B28DF808000D
:100A4000D4208DF8090040208DF80A0001208DF88F
:100A50000B00A0208DF80C008DF80D4010222946C7
:100A60000DF10E00FFF7ACFB01A8FFF729FE8DF892
:100A70001E0000208DF81F001C2101A8FFF7AAFF0F
:100A8000C82000F075FDFFF7E7FD002802DA4FF0FF
:100A9000FF3607E00548407B10B14FF0FF3601E01C
:100AA000002600BFFFF71EFE3046B6E730000020EC
:100AB0007047000029B1064A12680243044B1A60CD
:100AC00004E0034A12688243014B1A607047000039
:100AD0003038024029B1064A12680243044B1A60BA
:100AE00004E0034A12688243014B1A607047000019
:100AF0004038024029B1064A12680243044B1A608A
:100B000004E0034A12688243014B1A6070470000F8
:100B100044380240F0B500210022002402250026BE
:100B20000223324F3F6807F00C0121B1042905D0A0
:100B3000082937D105E02E4F076036E02D4F0760BA
:100B400033E02A4F3F1F3F68C7F38056274F3F1FB0
:100B50003F6807F03F036EB1264FB7FBF3F7DFF8AE
:100B60008CC0ACF1040CDCF800C0CCF3881C07FB93
:100B70000CF40CE01E4FB7FBF3F7DFF870C0ACF1DC
:100B8000040CDCF800C0CCF3881C07FB0CF4174FF6
:100B90003F1F3F68C7F301477F1C7D00B4FBF5F79B
:100BA000076002E0124F076000BF00BF0F4F3F68B1
:100BB00007F0F0010909104F7A5C0768D7404760D9
:100BC0000A4F3F6807F4E051890A0B4F7A5C476887
:100BD000D7408760054F3F6807F46041490B064FD7
:100BE0007A5C4768D740C760F0BD00000838024013
:100BF0000024F40000127A001A0000207047000060
:100C00000CB50020019000903448006840F480301A
:100C10003249086000BF3148006800F4003000909D
:100C20000198401C0190009818B90198B0F5A04FA8
:100C3000F1D12A48006800F4003010B10120009082
:100C400001E0002000900098012846D12348403060
:100C5000006840F080502149403108602048006819
:100C600040F440401E4908601C48083000681B4999
:100C7000083108600846006840F4004008600846F3
:100C8000006840F4A05008601648091F0860081F5B
:100C9000006840F08070091F086000BF0F480068BE
:100CA00000F000700028F9D040F205700E4908608D
:100CB0000A480830006820F003000849083108603D
:100CC0000846006840F00200086000BF0348083092
:100CD000006800F00C000828F8D10CBD0038024074
:100CE0000070004008544007003C0240704700007C
:100CF00010B51548006840F47000134908601348A7
:100D0000006840F001001149086000200F490831D7
:100D100008600E4800680E4908400C4908600D48FC
:100D2000091D0860081F006820F48020091F086062
:100D3000002006490C310860FFF762FF4FF00060A9
:100D400001498039086010BD88ED00E0003802409C
:100D5000FFFFF6FE1030002410B588B004460121D4
:100D60000846FFF7A7FE01214804FFF7B3FE07225C
:100D700002212248FFF7F6FA072203211F48FFF756
:100D8000F1FA0C20069002208DF81C008DF81D0051
:100D900000208DF81E0001208DF81F0006A91748BD
:100DA000FFF798FA02940020ADF80C00ADF80E00A1
:100DB000ADF81000ADF814000C20ADF8120002A937
:100DC0000F4800F0C9F826208DF8040003208DF8A4
:100DD00005008DF8060001208DF8070001A8FFF737
:100DE000FFFB012240F22551054800F08FF8012158
:100DF000034800F048F808B010BD000000000240B1
:100E00000044004010B540F225510B4800F054F862
:100E100080B1094800F00AF9C1B208480288008888
:100E2000401C064B18800648815440F22551024868
:100E300000F01AF810BD000000100140180000205A
:100E40003000002010B500242021064800F027F8CB
:100E500038B1044800F0EAF8C4B22146014800F075
:100E6000EAF810BD0044004010B50022002340F60F
:100E70006A14A14200D100BF0A1201249440A3B217
:100E8000DC43048010BD21B1828942F4005282818A
:100E900004E082894DF6FF731A4082817047024652
:100EA0000020B1F5007F00D100BF13880B400BB1CB
:100EB000012000E00020704770B5024600240023A6
:100EC0000025002040F66A16B14200D100BFC1F3F0
:100ED000421501F01F03012606FA03F3012D02D18A
:100EE0009689334006E0022D02D1168A334001E094
:100EF000968A33400C12012606FA04F41688344010
:100F000013B10CB1012000E0002070BDF0B5034624
:100F1000002400260025002040F66A17B94200D1BF
:100F200000BF1846C1F3421401F01F06012707FA5B
:100F300006F5012C01D10C3004E0022C01D1103057
:100F400000E014301AB107682F43076002E0076819
:100F5000AF430760F0BD00002DE9FF4705460E4690
:100F60000024A14600BFA046B08900B100BF2C8A72
:100F700024F44054F08804432C82AC8941F20C6084
:100F80008443B08831890843718908430443AC81A4
:100F9000AC8A24F44074B0890443AC826846FFF7FD
:100FA000B9FD2048854202D01F48854202D1DDF8B4
:100FB0000C9001E0DDF80890A88900F4004040B1F1
:100FC00009EBC90000EB091031684900B0FBF1F7EB
:100FD00007E009EBC90000EB091031688900B0FB9C
:100FE000F1F76420B7FBF0F004012009642101FB54
:100FF0001078A88900F4004040B1322000EBC8000E
:10100000B0FBF1F000F00700044308E0322000EBF1
:1010100008106421B0FBF1F000F00F0004432C81B4
:10102000BDE8FF8700100140001401400146888898
:10103000C0F308007047C1F308028280704700BF08
:10104000FEE700000FB4054B10B503A9044A02984F
:1010500000F018F810BC5DF814FB000091150008B2
:101060002C00002002E008C8121F08C1002AFAD193
:1010700070477047002001E001C1121F002AFBD118
:10108000704700002DE9FF4F8DB00F460546002642
:1010900006E025280BD0DDE90F1290476D1C761C69
:1010A00028780028F5D111B03046BDE8F08F002433
:1010B000A246A1460122EC4900E0044315F8013F95
:1010C000203B02FA03F00842F7D128782A2810D0F2
:1010D0006FF02F022878A0F13001092914D80AEB0B
:1010E0008A0102EB410144F0020400EB010A6D1C8D
:1010F000F0E701CF5FEA000A03D544F40054CAF1D7
:10110000000A44F002046D1C28782E2817D115F827
:10111000010F44F004042A280ED06FF02F02287823
:10112000A0F1300109290AD809EB890102EB41013C
:1011300000EB01096D1CF2E757F8049B6D1C287841
:101140006C280FD006DC4C2817D068280DD06A28F0
:1011500014D104E0742810D07A280FD10DE044F4A3
:1011600000140AE044F4801401E044F44014697867
:10117000814202D104F580146D1C6D1C2A786E2A00
:101180001FD00CDC632A31D004DC002A8BD0582A13
:1011900011D1A3E0642A68D0692A0CD165E0732AD2
:1011A0002ED004DC6F2A73D0702A04D19BE0752AFC
:1011B0006FD0782A6ED01046DDE90F129047761C6A
:1011C00050E1C4F30250022806D0032809D00428B5
:1011D00001CF09D0066045E101CFF117C0E90061F8
:1011E00040E101CF06803DE106703BE117F8040BBA
:1011F0008DF8000000208DF80100EB46012003E08F
:1012000057F804BB4FF0FF3061074FF0000102D4E4
:101210000DE008F10101884649450FDA8045F8DB09
:101220001BF808100029F4D108E008F101018846F4
:101230008142FADB1BF808100029F6D1DDE90F2303
:10124000AAEB08008146214600F036F9304400EB55
:10125000080604E0DDE90F121BF8010B9047B8F116
:101260000108F7D221464846F7E00A21C4F30253A9
:101270004FF0000B0891022B04D001CFC117032BB4
:1012800009D00AE0FF1D27F00707F7E8020108E090
:1012900032E01FE020E000B2C117042B01D140B2C0
:1012A000C117031E71F1000307DA4FF0000CD0EBF9
:1012B0000C006CEB01012D2302E0230504D52B2348
:1012C0008DF82430012303E0E30701D02023F7E762
:1012D000984658E00A2110E010210EE010204FF04F
:1012E000000B08900CE010214FF0000B44F00404B8
:1012F0004FF00809089103E008214FF0000B089116
:10130000C4F30253022B04D001CF0021032B06D0DB
:1013100006E0FF1D27F00707F7E8020103E080B2AF
:10132000042B00D1C0B24FF0000823072BD5702A40
:1013300007D0DDF820C08CF0100C5CEA0B0C05D057
:101340000EE040238DF82430012308E050EA010329
:1013500006D030238DF824308DF8252002239846BE
:10136000DDF820C08CF0080C5CEA0B0C0BD150EAC5
:10137000010301D1630706D530238DF824304FF0E7
:101380000108A9F10109582A04D038A20B9208AA31
:101390000A920BE03AA2F9E75B46089AFEF734FF9F
:1013A0000B9B9B5C0A9A521E0A92137050EA010230
:1013B000F2D10A98ADEB000000F1200B600702D5D6
:1013C00024F4803401E04FF00109D94502DDA9EB96
:1013D0000B0000E0002000EB0B0141440890AAEB59
:1013E000010AE00306D4DDE90F232146504600F050
:1013F00063F806444FF0000908E009A911F8090054
:10140000DDE90F12904709F10109761CC145F4DBB3
:10141000E0030CD5DDE90F232146504600F04CF8DF
:10142000064404E0DDE90F1230209047761C08994D
:10143000481E08900029F5DC08E00A980A9900780F
:10144000491C0A91DDE90F129047761CBBF100019F
:10145000ABF1010BF1DC21465046DDE90F2300F032
:1014600019F806446D1C1BE609280100303132339F
:1014700034353637383961626364656600000000D0
:1014800030313233343536373839414243444546BA
:10149000000000002DE9F041044600251E461746D5
:1014A000880404D405E039462020B0476D1C641E32
:1014B000F9D52846BDE8F0812DE9F0410446002524
:1014C0001E469046C80301D5302700E02027880437
:1014D00004D505E041463846B0476D1C641EF9D579
:1014E0002846BDE8F081000010B5002400BF1BE0D5
:1014F0001348005D1349095D884208D01048015D1A
:1015000011A0FFF79FFD12A0FFF79CFD0EE00C4815
:10151000015D0DA0FFF796FD04F00F000F2802D12A
:101520000FA0FFF78FFD641C102CE1D300BF0CA0AF
:10153000FFF788FD102C02D30AA0FFF783FD10BD32
:101540002402002034020020307825303258200058
:101550006E6F7420636F72726563740D0A00000011
:101560000D0A000054455354204F4B0D0A00000053
:1015700007E048F2084100BF0A1EA1F1010399B239
:10158000FAD1021EA0F1010398B2F2D17047000017
:1015900070B504460D46E1B20548FFF74CFD00BFAB
:1015A00080210348FFF77BFC0028F9D0204670BD5E
:1015B000004400404FF4E130FFF7CEFB4FF4E13040
:1015C000FEF7F8FE13A0FFF73DFDFEF785FF00F0E4
:1015D00039F81EE013490220FEF7C4FF002800DAA4
:1015E00017E011A0FFF72EFD41F28830FFF7C0FF92
:1015F00010490220FEF734FF002800DA09E00EA0AF
:10160000FFF720FDFFF770FF47F23050FFF7B0FF04
:1016100000BFDFE74E464320496E6974204F4B0DF3
:101620000A000000340200205772697465204F4B95
:101630000D0A00002402002052656164204F4B0D0A
:101640000A00000010B5002400BF0EE008490C5548
:101650000846015D07A0FFF7F5FC04F00F000F2816
:1016600002D106A0FFF7EEFC641C102CEED310BDD7
:101670003402002030782530325820000D0A000056
:10168000A0160008000000203000000064100008D0
:10169000D016000830000020180600007410000862
:1016A000000000000000000000000000FFFFFFFF3E
:1016B000FFFFFFFFFFFFFFFF00000000000001022F
:1016C00003040102030406070809000000000000EB
:040000050800019D51
:00000001FF
